{"contracts/AdaptiveImmuneFirewall.sol":{"AdaptiveImmuneFirewall":{"abi":[{"inputs":[{"internalType":"address","name":"_intuitionVault","type":"address"}],"stateMutability":"nonpayable","type":"constructor"},{"inputs":[],"name":"BondTooLow","type":"error"},{"inputs":[],"name":"ChallengeBondTooLow","type":"error"},{"inputs":[],"name":"ChallengeExists","type":"error"},{"inputs":[],"name":"ChallengeWindowOver","type":"error"},{"inputs":[],"name":"DisputeActive","type":"error"},{"inputs":[],"name":"DowngradeAttempt","type":"error"},{"inputs":[],"name":"EnforcedPause","type":"error"},{"inputs":[],"name":"ExpectedPause","type":"error"},{"inputs":[],"name":"InvalidMinRegistrationAssets","type":"error"},{"inputs":[],"name":"InvalidThresholds","type":"error"},{"inputs":[],"name":"NoActiveRegistration","type":"error"},{"inputs":[],"name":"NoChallengeWindow","type":"error"},{"inputs":[{"internalType":"uint256","name":"vaultId","type":"uint256"}],"name":"NotATriple","type":"error"},{"inputs":[],"name":"NotCounterTriple","type":"error"},{"inputs":[{"internalType":"address","name":"owner","type":"address"}],"name":"OwnableInvalidOwner","type":"error"},{"inputs":[{"internalType":"address","name":"account","type":"address"}],"name":"OwnableUnauthorizedAccount","type":"error"},{"inputs":[],"name":"ResolveDeferred","type":"error"},{"inputs":[],"name":"WeakSignal","type":"error"},{"inputs":[],"name":"ZeroAddress","type":"error"},{"inputs":[],"name":"ZeroTripleId","type":"error"},{"anonymous":false,"inputs":[{"indexed":true,"internalType":"address","name":"suspect","type":"address"},{"indexed":false,"internalType":"uint256","name":"oldDeadline","type":"uint256"},{"indexed":false,"internalType":"uint256","name":"newDeadline","type":"uint256"},{"indexed":false,"internalType":"uint256","name":"netStart","type":"uint256"},{"indexed":false,"internalType":"uint256","name":"netEnd","type":"uint256"}],"name":"ChallengeWindowExtended","type":"event"},{"anonymous":false,"inputs":[{"indexed":false,"internalType":"address","name":"admin","type":"address"}],"name":"EmergencyPaused","type":"event"},{"anonymous":false,"inputs":[{"indexed":false,"internalType":"address","name":"admin","type":"address"}],"name":"EmergencyUnpaused","type":"event"},{"anonymous":false,"inputs":[{"indexed":true,"internalType":"address","name":"previousOwner","type":"address"},{"indexed":true,"internalType":"address","name":"newOwner","type":"address"}],"name":"OwnershipTransferred","type":"event"},{"anonymous":false,"inputs":[{"indexed":false,"internalType":"address","name":"account","type":"address"}],"name":"Paused","type":"event"},{"anonymous":false,"inputs":[{"indexed":true,"internalType":"address","name":"suspect","type":"address"},{"indexed":true,"internalType":"address","name":"challenger","type":"address"},{"indexed":true,"internalType":"uint256","name":"counterTripleId","type":"uint256"},{"indexed":false,"internalType":"uint256","name":"bond","type":"uint256"},{"indexed":false,"internalType":"uint256","name":"deadline","type":"uint256"}],"name":"ThreatChallenged","type":"event"},{"anonymous":false,"inputs":[{"indexed":true,"internalType":"address","name":"suspect","type":"address"},{"indexed":true,"internalType":"uint256","name":"tripleId","type":"uint256"},{"indexed":true,"internalType":"address","name":"registrar","type":"address"},{"indexed":false,"internalType":"uint256","name":"timestamp","type":"uint256"}],"name":"ThreatRegistered","type":"event"},{"anonymous":false,"inputs":[{"indexed":true,"internalType":"address","name":"suspect","type":"address"},{"indexed":false,"internalType":"bool","name":"confirmed","type":"bool"},{"indexed":false,"internalType":"uint256","name":"winnerPayout","type":"uint256"},{"indexed":false,"internalType":"uint256","name":"treasuryCut","type":"uint256"}],"name":"ThreatResolved","type":"event"},{"anonymous":false,"inputs":[{"indexed":true,"internalType":"address","name":"target","type":"address"},{"indexed":false,"internalType":"uint256","name":"tripleId","type":"uint256"},{"indexed":false,"internalType":"uint256","name":"assets","type":"uint256"},{"indexed":false,"internalType":"enum AdaptiveImmuneFirewall.RiskStatus","name":"status","type":"uint8"}],"name":"ThresholdsEvaluated","type":"event"},{"anonymous":false,"inputs":[{"indexed":false,"internalType":"uint256","name":"newWarn","type":"uint256"},{"indexed":false,"internalType":"uint256","name":"newBlock","type":"uint256"}],"name":"ThresholdsUpdated","type":"event"},{"anonymous":false,"inputs":[{"indexed":false,"internalType":"address","name":"account","type":"address"}],"name":"Unpaused","type":"event"},{"inputs":[],"name":"BLOCK_STAKE_THRESHOLD","outputs":[{"internalType":"uint256","name":"","type":"uint256"}],"stateMutability":"view","type":"function"},{"inputs":[],"name":"WARN_STAKE_THRESHOLD","outputs":[{"internalType":"uint256","name":"","type":"uint256"}],"stateMutability":"view","type":"function"},{"inputs":[],"name":"challengeBondMultiplierBp","outputs":[{"internalType":"uint256","name":"","type":"uint256"}],"stateMutability":"view","type":"function"},{"inputs":[{"internalType":"address","name":"_suspect","type":"address"},{"internalType":"uint256","name":"_counterTripleId","type":"uint256"}],"name":"challengeThreat","outputs":[],"stateMutability":"payable","type":"function"},{"inputs":[],"name":"challengeWindow","outputs":[{"internalType":"uint256","name":"","type":"uint256"}],"stateMutability":"view","type":"function"},{"inputs":[],"name":"emergencyPause","outputs":[],"stateMutability":"nonpayable","type":"function"},{"inputs":[],"name":"emergencyUnpause","outputs":[],"stateMutability":"nonpayable","type":"function"},{"inputs":[{"internalType":"address","name":"_target","type":"address"}],"name":"getDispute","outputs":[{"internalType":"uint256","name":"challengeDeadline","type":"uint256"},{"internalType":"address","name":"challenger","type":"address"},{"internalType":"uint256","name":"counterTripleId","type":"uint256"},{"internalType":"uint256","name":"registrarBond","type":"uint256"},{"internalType":"uint256","name":"challengerBond","type":"uint256"}],"stateMutability":"view","type":"function"},{"inputs":[{"internalType":"address","name":"_target","type":"address"}],"name":"getThreatIntel","outputs":[{"internalType":"uint256","name":"tripleId","type":"uint256"},{"internalType":"uint256","name":"registeredAt","type":"uint256"},{"internalType":"address","name":"registrar","type":"address"},{"internalType":"uint256","name":"conviction","type":"uint256"},{"internalType":"uint256","name":"counterConviction","type":"uint256"},{"internalType":"enum AdaptiveImmuneFirewall.RiskStatus","name":"status","type":"uint8"}],"stateMutability":"view","type":"function"},{"inputs":[{"internalType":"address","name":"_target","type":"address"}],"name":"immunityScoreBp","outputs":[{"internalType":"uint256","name":"scoreBp","type":"uint256"}],"stateMutability":"view","type":"function"},{"inputs":[],"name":"intuitionVault","outputs":[{"internalType":"contract IEthMultiVault","name":"","type":"address"}],"stateMutability":"view","type":"function"},{"inputs":[{"internalType":"address","name":"_target","type":"address"}],"name":"isBlocked","outputs":[{"internalType":"bool","name":"","type":"bool"}],"stateMutability":"view","type":"function"},{"inputs":[],"name":"minBond","outputs":[{"internalType":"uint256","name":"","type":"uint256"}],"stateMutability":"view","type":"function"},{"inputs":[],"name":"minRegistrationAssets","outputs":[{"internalType":"uint256","name":"","type":"uint256"}],"stateMutability":"view","type":"function"},{"inputs":[],"name":"owner","outputs":[{"internalType":"address","name":"","type":"address"}],"stateMutability":"view","type":"function"},{"inputs":[],"name":"paused","outputs":[{"internalType":"bool","name":"","type":"bool"}],"stateMutability":"view","type":"function"},{"inputs":[{"internalType":"address","name":"_suspect","type":"address"},{"internalType":"uint256","name":"_tripleId","type":"uint256"}],"name":"registerThreat","outputs":[],"stateMutability":"payable","type":"function"},{"inputs":[],"name":"renounceOwnership","outputs":[],"stateMutability":"nonpayable","type":"function"},{"inputs":[],"name":"requireCounterTripleExists","outputs":[{"internalType":"bool","name":"","type":"bool"}],"stateMutability":"view","type":"function"},{"inputs":[{"internalType":"address","name":"_suspect","type":"address"}],"name":"resolveThreat","outputs":[],"stateMutability":"nonpayable","type":"function"},{"inputs":[{"internalType":"address","name":"_target","type":"address"}],"name":"riskScore","outputs":[{"internalType":"uint256","name":"assets","type":"uint256"},{"internalType":"uint256","name":"shares","type":"uint256"},{"internalType":"enum AdaptiveImmuneFirewall.RiskStatus","name":"status","type":"uint8"},{"internalType":"uint256","name":"tripleId","type":"uint256"}],"stateMutability":"view","type":"function"},{"inputs":[{"internalType":"uint256","name":"_bp","type":"uint256"}],"name":"setChallengeBondMultiplierBp","outputs":[],"stateMutability":"nonpayable","type":"function"},{"inputs":[{"internalType":"uint256","name":"_seconds","type":"uint256"}],"name":"setChallengeWindow","outputs":[],"stateMutability":"nonpayable","type":"function"},{"inputs":[{"internalType":"uint256","name":"_minBond","type":"uint256"}],"name":"setMinBond","outputs":[],"stateMutability":"nonpayable","type":"function"},{"inputs":[{"internalType":"uint256","name":"_newMin","type":"uint256"}],"name":"setMinRegistrationAssets","outputs":[],"stateMutability":"nonpayable","type":"function"},{"inputs":[{"internalType":"bool","name":"_require","type":"bool"}],"name":"setRequireCounterTripleExists","outputs":[],"stateMutability":"nonpayable","type":"function"},{"inputs":[{"internalType":"uint256","name":"_newWarn","type":"uint256"},{"internalType":"uint256","name":"_newBlock","type":"uint256"}],"name":"setThresholds","outputs":[],"stateMutability":"nonpayable","type":"function"},{"inputs":[{"internalType":"address","name":"_treasury","type":"address"}],"name":"setTreasury","outputs":[],"stateMutability":"nonpayable","type":"function"},{"inputs":[{"internalType":"uint256","name":"_bp","type":"uint256"}],"name":"setWinnerRewardBp","outputs":[],"stateMutability":"nonpayable","type":"function"},{"inputs":[{"internalType":"address","name":"","type":"address"}],"name":"threats","outputs":[{"internalType":"uint256","name":"tripleId","type":"uint256"},{"internalType":"uint256","name":"registeredAt","type":"uint256"},{"internalType":"address","name":"registrar","type":"address"},{"internalType":"uint256","name":"bond","type":"uint256"},{"internalType":"uint256","name":"challengeDeadline","type":"uint256"},{"internalType":"address","name":"challenger","type":"address"},{"internalType":"uint256","name":"counterTripleId","type":"uint256"},{"internalType":"uint256","name":"challengerBond","type":"uint256"},{"internalType":"uint256","name":"assetsStart","type":"uint256"},{"internalType":"uint256","name":"counterAssetsStart","type":"uint256"}],"stateMutability":"view","type":"function"},{"inputs":[{"internalType":"address","name":"newOwner","type":"address"}],"name":"transferOwnership","outputs":[],"stateMutability":"nonpayable","type":"function"},{"inputs":[],"name":"treasury","outputs":[{"internalType":"address","name":"","type":"address"}],"stateMutability":"view","type":"function"},{"inputs":[],"name":"volatilityExtension","outputs":[{"internalType":"uint256","name":"","type":"uint256"}],"stateMutability":"view","type":"function"},{"inputs":[],"name":"volatilityExtensionEnabled","outputs":[{"internalType":"bool","name":"","type":"bool"}],"stateMutability":"view","type":"function"},{"inputs":[],"name":"volatilityThresholdBp","outputs":[{"internalType":"uint256","name":"","type":"uint256"}],"stateMutability":"view","type":"function"},{"inputs":[],"name":"winnerRewardBp","outputs":[{"internalType":"uint256","name":"","type":"uint256"}],"stateMutability":"view","type":"function"}],"evm":{"bytecode":{"linkReferences":{},"object":"6080604052655af3107a4000600281905566038d7ea4c680006003556509184e72a000600455600054600680546001600160a01b0319166001600160a01b0390921691909117905560075562015180600855613a98600955612328600a55600b805460ff199081166001908117909255610bb8600c55610708600d55600e805490911690911790553480156200009457600080fd5b506040516200232f3803806200232f833981016040819052620000b79162000188565b3380620000de57604051631e4fbdf760e01b81526000600482015260240160405180910390fd5b620000e98162000138565b506001600160a01b038116620001125760405163d92e233d60e01b815260040160405180910390fd5b600180546001600160a01b0319166001600160a01b0392909216919091179055620001ba565b600080546001600160a01b038381166001600160a01b0319831681178455604051919092169283917f8be0079c531659141344cd1fd0a4f28419497f9722a3daafe3b4186f6b6457e09190a35050565b6000602082840312156200019b57600080fd5b81516001600160a01b0381168114620001b357600080fd5b9392505050565b61216580620001ca6000396000f3fe60806040526004361061020f5760003560e01c80639e8b95a911610118578063ed3668af116100a0578063f4cd141f1161006f578063f4cd141f14610747578063fadef9f814610767578063fb3b64291461077d578063fbac39511461079d578063ffa08464146107bd57600080fd5b8063ed3668af146106db578063efbf74e6146106f1578063f0f4426014610707578063f2fde38b1461072757600080fd5b8063c81ed361116100e7578063c81ed36114610645578063d524f19514610665578063d9b5017214610685578063e3064a771461069b578063e8236a3e146106bb57600080fd5b80639e8b95a9146105c3578063a23ba185146105d9578063be9472cc146105f3578063bfa8b3b91461062557600080fd5b80636ca944b71161019b57806376c7d6771161016a57806376c7d6771461053f578063831518b71461055f578063861a141214610575578063881a5aa71461058b5780638da5cb5b146105a557600080fd5b80636ca944b7146104105780636eaae824146104e6578063715018a614610506578063734f2a281461051b57600080fd5b80634a4e3bd5116101e25780634a4e3bd51461037057806351858e271461038557806354b822211461039a5780635c975abb146103ad57806361d027b3146103d857600080fd5b806301c1aa0d146102145780632e76047614610236578063335552de14610249578063414363e614610340575b600080fd5b34801561022057600080fd5b5061023461022f366004611f00565b6107d3565b005b610234610244366004611f35565b610837565b34801561025557600080fd5b5061030b610264366004611f5f565b6001600160a01b039081166000908152600560208181526040928390208351610140810185528154815260018201549281019290925260028101548516938201939093526003830154606082018190526004840154608083018190529284015490941660a08201819052600684015460c08301819052600785015460e084018190526008860154610100850152600990950154610120909301929092529194919390929091565b604080519586526001600160a01b039094166020860152928401919091526060830152608082015260a0015b60405180910390f35b34801561034c57600080fd5b5061036061035b366004611f5f565b610b09565b6040516103379493929190611fb9565b34801561037c57600080fd5b50610234610c8d565b34801561039157600080fd5b50610234610cd3565b6102346103a8366004611f35565b610d13565b3480156103b957600080fd5b50600054600160a01b900460ff165b6040519015158152602001610337565b3480156103e457600080fd5b506006546103f8906001600160a01b031681565b6040516001600160a01b039091168152602001610337565b34801561041c57600080fd5b5061048961042b366004611f5f565b60056020819052600091825260409091208054600182015460028301546003840154600485015495850154600686015460078701546008880154600990980154969895976001600160a01b039586169794969590931693919290918a565b604080519a8b5260208b01999099526001600160a01b03978816988a019890985260608901959095526080880193909352931660a086015260c085019290925260e084019190915261010083015261012082015261014001610337565b3480156104f257600080fd5b50610234610501366004611f00565b61125c565b34801561051257600080fd5b506102346112a5565b34801561052757600080fd5b5061053160035481565b604051908152602001610337565b34801561054b57600080fd5b5061023461055a366004611f5f565b6112b9565b34801561056b57600080fd5b5061053160075481565b34801561058157600080fd5b5061053160085481565b34801561059757600080fd5b50600b546103c89060ff1681565b3480156105b157600080fd5b506000546001600160a01b03166103f8565b3480156105cf57600080fd5b50610531600a5481565b3480156105e557600080fd5b50600e546103c89060ff1681565b3480156105ff57600080fd5b5061061361060e366004611f5f565b611846565b60405161033796959493929190611fe3565b34801561063157600080fd5b50610234610640366004611f00565b6119a7565b34801561065157600080fd5b50610234610660366004612034565b6119f5565b34801561067157600080fd5b50610531610680366004611f5f565b611a10565b34801561069157600080fd5b50610531600c5481565b3480156106a757600080fd5b506102346106b6366004612051565b611b3c565b3480156106c757600080fd5b506102346106d6366004611f00565b611bb7565b3480156106e757600080fd5b5061053160095481565b3480156106fd57600080fd5b5061053160045481565b34801561071357600080fd5b50610234610722366004611f5f565b611be5565b34801561073357600080fd5b50610234610742366004611f5f565b611c36565b34801561075357600080fd5b506001546103f8906001600160a01b031681565b34801561077357600080fd5b5061053160025481565b34801561078957600080fd5b50610234610798366004611f00565b611c71565b3480156107a957600080fd5b506103c86107b8366004611f5f565b611cc1565b3480156107c957600080fd5b50610531600d5481565b6107db611cf5565b610e108110156108325760405162461bcd60e51b815260206004820152601960248201527f6368616c6c656e676557696e646f7720746f6f20736d616c6c0000000000000060448201526064015b60405180910390fd5b600855565b61083f611d22565b6001600160a01b0380831660009081526005602081815260408084208151610140810183528154808252600183015494820194909452600282015487169281019290925260038101546060830152600481015460808301529283015490941660a0850152600682015460c0850152600782015460e0850152600882015461010085015260099091015461012084015290036108ed5760405163ec256b1960e01b815260040160405180910390fd5b806080015160000361091257604051630f703a3560e31b815260040160405180910390fd5b80608001514211156109375760405163864bc47360e01b815260040160405180910390fd5b60a08101516001600160a01b03161561096357604051634ddb632760e11b815260040160405180910390fd5b600e5460ff1680156109df5750600154604051630fee409760e11b8152600481018490526001600160a01b0390911690631fdc812e90602401602060405180830381865afa1580156109b9573d6000803e3d6000fd5b505050506040513d601f19601f820116820180604052508101906109dd9190612073565b155b15610a0057604051635cf3229b60e11b815260048101839052602401610829565b8051600090610a11906000196120a6565b9050808314610a3357604051630697ad2560e51b815260040160405180910390fd5b60006127106009548460600151610a4a91906120bf565b610a5491906120d6565b905080341015610a7757604051631ea3bcd160e21b815260040160405180910390fd5b6001600160a01b03851660008181526005602081905260409182902090810180546001600160a01b0319163390811790915560068201889055346007909201829055608087015192518894919391927f3b57e9ac0bbcdc5fc96d0b2eccc9919be716fbbd9d075f806680ca25cf2cccb592610afa92918252602082015260400190565b60405180910390a45050505050565b6001600160a01b03811660009081526005602052604081205481908190808203610b3e57506000925082915081905080610c86565b600154604051620d10bb60e51b815260048101839052600060248201526001600160a01b03909116906301a21760906044016040805180830381865afa158015610b8c573d6000803e3d6000fd5b505050506040513d601f19601f82011682018060405250810190610bb091906120f8565b90945092506000610bc3826000196120a6565b600154604051620d10bb60e51b8152600481018390526000602482018190529293506001600160a01b03909116906301a21760906044016040805180830381865afa158015610c16573d6000803e3d6000fd5b505050506040513d601f19601f82011682018060405250810190610c3a91906120f8565b5090506000868210610c4d576000610c57565b610c5782886120a6565b90506003548110610c6b5760039450610c82565b6002548110610c7d5760029450610c82565b600194505b5050505b9193509193565b610c95611cf5565b610c9d611d4d565b6040513381527ff5cbf596165cc457b2cd92e8d8450827ee314968160a5696402d75766fc52caf906020015b60405180910390a1565b610cdb611cf5565b610ce3611d9d565b6040513381527fb8fad2fa0ed7a383e747c309ef2c4391d7b65592a48893e57ccc1fab7079145690602001610cc9565b610d1b611d22565b6001600160a01b038216610d425760405163d92e233d60e01b815260040160405180910390fd5b80600003610d635760405163dfa225d560e01b815260040160405180910390fd5b600154604051630fee409760e11b8152600481018390526001600160a01b0390911690631fdc812e90602401602060405180830381865afa158015610dac573d6000803e3d6000fd5b505050506040513d601f19601f82011682018060405250810190610dd09190612073565b610df057604051635cf3229b60e11b815260048101829052602401610829565b600754341015610e1357604051631b8d83e560e21b815260040160405180910390fd5b600154604051620d10bb60e51b815260048101839052600060248201819052916001600160a01b0316906301a21760906044016040805180830381865afa158015610e62573d6000803e3d6000fd5b505050506040513d601f19601f82011682018060405250810190610e8691906120f8565b5090506001600454118015610e9c575060045481105b15610eba57604051633ff3985360e11b815260040160405180910390fd5b6001600160a01b038084166000908152600560208181526040928390208351610140810185528154808252600183015493820193909352600282015486169481019490945260038101546060850152600481015460808501529182015490931660a0830152600681015460c0830152600781015460e0830152600881015461010083015260090154610120820152901561101f57608081015115801590610f65575080608001514211155b15610f8357604051637c9d2ba760e01b815260040160405180910390fd5b6001548151604051620d10bb60e51b81526004810191909152600060248201819052916001600160a01b0316906301a21760906044016040805180830381865afa158015610fd5573d6000803e3d6000fd5b505050506040513d601f19601f82011682018060405250810190610ff991906120f8565b5090508281111561101d5760405163581ec51d60e01b815260040160405180910390fd5b505b600061102d846000196120a6565b600154604051620d10bb60e51b8152600481018790526000602482018190529293506001600160a01b03909116906301a21760906044016040805180830381865afa158015611080573d6000803e3d6000fd5b505050506040513d601f19601f820116820180604052508101906110a491906120f8565b50600154604051620d10bb60e51b8152600481018590526000602482018190529293506001600160a01b03909116906301a21760906044016040805180830381865afa1580156110f8573d6000803e3d6000fd5b505050506040513d601f19601f8201168201806040525081019061111c91906120f8565b509050604051806101400160405280878152602001428152602001336001600160a01b031681526020013481526020016008544261115a919061211c565b81526000602080830182905260408084018390526060808501849052608080860189905260a09586018890526001600160a01b038e811680875260058087529685902089518155898701516001820155898601516002820180546001600160a01b0319908116928616929092179055948a01516003820155928901516004840155968801519582018054909316951694909417905560c0850151600684015560e08501516007840155610100850151600884015561012090940151600990920191909155915142815233928992917fdad382abef697d0a1ef2dc0f7c0fe16ceac3ce21de265bfebd29d116e0a7600f910160405180910390a450505050505050565b611264611cf5565b600081116112a05760405162461bcd60e51b815260206004820152600960248201526806d696e426f6e643d360bc1b6044820152606401610829565b600755565b6112ad611cf5565b6112b76000611de0565b565b6112c1611d22565b6001600160a01b038116600090815260056020526040812080549091036112fb5760405163ec256b1960e01b815260040160405180910390fd5b806004015460000361132057604051630f703a3560e31b815260040160405180910390fd5b806004015442116113445760405163864bc47360e01b815260040160405180910390fd5b6001548154604051620d10bb60e51b81526004810191909152600060248201819052916001600160a01b0316906301a21760906044016040805180830381865afa158015611396573d6000803e3d6000fd5b505050506040513d601f19601f820116820180604052508101906113ba91906120f8565b50905060008260060154600014611447576001546006840154604051620d10bb60e51b81526004810191909152600060248201526001600160a01b03909116906301a21760906044016040805180830381865afa15801561141f573d6000803e3d6000fd5b505050506040513d601f19601f8201168201806040525081019061144391906120f8565b5090505b6000836008015484600901541061145f576000611473565b8360090154846008015461147391906120a6565b9050600083831061148557600061148f565b61148f83856120a6565b600b5490915060ff1680156114b0575060058501546001600160a01b031615155b156115b25760008083116114c55760016114c7565b825b905060008284116114f857816114dd85856120a6565b6114e9906127106120bf565b6114f391906120d6565b611519565b8161150384866120a6565b61150f906127106120bf565b61151991906120d6565b9050600c5481106115af576004870154600d54600090611539904261211c565b60048a018190556040805184815260208101839052908101889052606081018790529091506001600160a01b038b16907fea1692683cc63d78120a6b5da2778964714d2504018338d65302f07b3560d7469060800160405180910390a26040516370039c7d60e11b815260040160405180910390fd5b50505b60008386600901546115c4919061211c565b8587600801546115d4919061211c565b600288015460058901805460038b015460078c018054600060048f018190556001600160a01b0319851690955560068e01859055908490559590941195506001600160a01b039283169492169291908084611693576116338685611e30565b6040805160018152602081018690526000918101919091526001600160a01b038e16907f86750d98a4044ad94b434b83c41945a9c16689da26b780f332765b544f54e75b906060015b60405180910390a250505050505050505050505050565b8615611715576000612710600a54856116ac91906120bf565b6116b691906120d6565b90506116c281856120a6565b92506116ce818661211c565b91506116da8783611e30565b6000831180156116f457506006546001600160a01b031615155b1561170f5760065461170f906001600160a01b031684611e30565b506117f8565b6000612710600a548661172891906120bf565b61173291906120d6565b905061173e81866120a6565b925061174a818561211c565b91506117568683611e30565b60008311801561177057506006546001600160a01b031615155b1561178b5760065461178b906001600160a01b031684611e30565b506001600160a01b038d1660009081526005602081905260408220828155600181018390556002810180546001600160a01b031990811690915560038201849055600482018490559181018054909216909155600681018290556007810182905560088101829055600901555b604080518815158152602081018390529081018390526001600160a01b038e16907f86750d98a4044ad94b434b83c41945a9c16689da26b780f332765b544f54e75b9060600161167c565b50565b6001600160a01b038082166000908152600560208181526040808420815161014081018352815480825260018301549482018590526002830154881693820184905260038301546060830152600483015460808301529482015490961660a0870152600681015460c0870152600781015460e08701526008810154610100870152600901546101208601529193909290819081908682036118fc576000806000806000809650965096509650965096505061199e565b6000806119088a610b09565b50925050915081955060008960001961192191906120a6565b600154604051620d10bb60e51b815260048101839052600060248201529192506001600160a01b0316906301a21760906044016040805180830381865afa158015611970573d6000803e3d6000fd5b505050506040513d601f19601f8201168201806040525081019061199491906120f8565b5095509093505050505b91939550919395565b6119af611cf5565b6127108111156119f05760405162461bcd60e51b815260206004820152600c60248201526b726577617264203e3130302560a01b6044820152606401610829565b600a55565b6119fd611cf5565b600e805460ff1916911515919091179055565b600080600080611a1f85610b09565b929550935090915060009050826003811115611a3d57611a3d611f81565b03611a4e5750612710949350505050565b6000611a5c826000196120a6565b600154604051620d10bb60e51b8152600481018390526000602482018190529293506001600160a01b03909116906301a21760906044016040805180830381865afa158015611aaf573d6000803e3d6000fd5b505050506040513d601f19601f82011682018060405250810190611ad391906120f8565b5090506000858210611ae6576000611af0565b611af082876120a6565b905060006003548211611b035781611b07565b6003545b600354909150611b19826127106120bf565b611b2391906120d6565b611b2f906127106120a6565b9998505050505050505050565b611b44611cf5565b600082118015611b5357508181115b611b7057604051632e83089360e11b815260040160405180910390fd5b6002829055600381905560408051838152602081018390527fd081f5afbf5e2859f2be3d6c573e1cdd6c8fb93b18ec6145427882fe51507b6a910160405180910390a15050565b611bbf611cf5565b80600003611be05760405163441eaab760e01b815260040160405180910390fd5b600455565b611bed611cf5565b6001600160a01b038116611c145760405163d92e233d60e01b815260040160405180910390fd5b600680546001600160a01b0319166001600160a01b0392909216919091179055565b611c3e611cf5565b6001600160a01b038116611c6857604051631e4fbdf760e01b815260006004820152602401610829565b61184381611de0565b611c79611cf5565b612710811015611cbc5760405162461bcd60e51b815260206004820152600e60248201526d0daead8e8d2e0d8d2cae4407862f60931b6044820152606401610829565b600955565b600080611ccd83610b09565b50925060039150611cdb9050565b816003811115611ced57611ced611f81565b149392505050565b6000546001600160a01b031633146112b75760405163118cdaa760e01b8152336004820152602401610829565b600054600160a01b900460ff16156112b75760405163d93c066560e01b815260040160405180910390fd5b611d55611ed6565b6000805460ff60a01b191690557f5db9ee0a495bf2e6ff9c91a7834c1ba4fdd244a5e8aa4e537bd38aeae4b073aa335b6040516001600160a01b039091168152602001610cc9565b611da5611d22565b6000805460ff60a01b1916600160a01b1790557f62e78cea01bee320cd4e420270b5ea74000d11b0c9f74754ebdbfc544b05a258611d853390565b600080546001600160a01b038381166001600160a01b0319831681178455604051919092169283917f8be0079c531659141344cd1fd0a4f28419497f9722a3daafe3b4186f6b6457e09190a35050565b80600003611e3c575050565b6000826001600160a01b03168260405160006040518083038185875af1925050503d8060008114611e89576040519150601f19603f3d011682016040523d82523d6000602084013e611e8e565b606091505b5050905080611ed15760405162461bcd60e51b815260206004820152600f60248201526e1d1c985b9cd9995c8819985a5b1959608a1b6044820152606401610829565b505050565b600054600160a01b900460ff166112b757604051638dfc202b60e01b815260040160405180910390fd5b600060208284031215611f1257600080fd5b5035919050565b80356001600160a01b0381168114611f3057600080fd5b919050565b60008060408385031215611f4857600080fd5b611f5183611f19565b946020939093013593505050565b600060208284031215611f7157600080fd5b611f7a82611f19565b9392505050565b634e487b7160e01b600052602160045260246000fd5b60048110611fb557634e487b7160e01b600052602160045260246000fd5b9052565b8481526020810184905260808101611fd46040830185611f97565b82606083015295945050505050565b868152602081018690526001600160a01b0385166040820152606081018490526080810183905260c0810161201b60a0830184611f97565b979650505050505050565b801515811461184357600080fd5b60006020828403121561204657600080fd5b8135611f7a81612026565b6000806040838503121561206457600080fd5b50508035926020909101359150565b60006020828403121561208557600080fd5b8151611f7a81612026565b634e487b7160e01b600052601160045260246000fd5b818103818111156120b9576120b9612090565b92915050565b80820281158282048414176120b9576120b9612090565b6000826120f357634e487b7160e01b600052601260045260246000fd5b500490565b6000806040838503121561210b57600080fd5b505080516020909101519092909150565b808201808211156120b9576120b961209056fea26469706673582212208f6e0ca61829ed9e262899c135475dabb98d12137f5efc3592e782fbc4317d2164736f6c63430008150033","opcodes":"PUSH1 0x80 PUSH1 0x40 MSTORE PUSH6 0x5AF3107A4000 PUSH1 0x2 DUP2 SWAP1 SSTORE PUSH7 0x38D7EA4C68000 PUSH1 0x3 SSTORE PUSH6 0x9184E72A000 PUSH1 0x4 SSTORE PUSH1 0x0 SLOAD PUSH1 0x6 DUP1 SLOAD PUSH1 0x1 PUSH1 0x1 PUSH1 0xA0 SHL SUB NOT AND PUSH1 0x1 PUSH1 0x1 PUSH1 0xA0 SHL SUB SWAP1 SWAP3 AND SWAP2 SWAP1 SWAP2 OR SWAP1 SSTORE PUSH1 0x7 SSTORE PUSH3 0x15180 PUSH1 0x8 SSTORE PUSH2 0x3A98 PUSH1 0x9 SSTORE PUSH2 0x2328 PUSH1 0xA SSTORE PUSH1 0xB DUP1 SLOAD PUSH1 0xFF NOT SWAP1 DUP2 AND PUSH1 0x1 SWAP1 DUP2 OR SWAP1 SWAP3 SSTORE PUSH2 0xBB8 PUSH1 0xC SSTORE PUSH2 0x708 PUSH1 0xD SSTORE PUSH1 0xE DUP1 SLOAD SWAP1 SWAP2 AND SWAP1 SWAP2 OR SWAP1 SSTORE CALLVALUE DUP1 ISZERO PUSH3 0x94 JUMPI PUSH1 0x0 DUP1 REVERT JUMPDEST POP PUSH1 0x40 MLOAD PUSH3 0x232F CODESIZE SUB DUP1 PUSH3 0x232F DUP4 CODECOPY DUP2 ADD PUSH1 0x40 DUP2 SWAP1 MSTORE PUSH3 0xB7 SWAP2 PUSH3 0x188 JUMP JUMPDEST CALLER DUP1 PUSH3 0xDE JUMPI PUSH1 0x40 MLOAD PUSH4 0x1E4FBDF7 PUSH1 0xE0 SHL DUP2 MSTORE PUSH1 0x0 PUSH1 0x4 DUP3 ADD MSTORE PUSH1 0x24 ADD PUSH1 0x40 MLOAD DUP1 SWAP2 SUB SWAP1 REVERT JUMPDEST PUSH3 0xE9 DUP2 PUSH3 0x138 JUMP JUMPDEST POP PUSH1 0x1 PUSH1 0x1 PUSH1 0xA0 SHL SUB DUP2 AND PUSH3 0x112 JUMPI PUSH1 0x40 MLOAD PUSH4 0xD92E233D PUSH1 0xE0 SHL DUP2 MSTORE PUSH1 0x4 ADD PUSH1 0x40 MLOAD DUP1 SWAP2 SUB SWAP1 REVERT JUMPDEST PUSH1 0x1 DUP1 SLOAD PUSH1 0x1 PUSH1 0x1 PUSH1 0xA0 SHL SUB NOT AND PUSH1 0x1 PUSH1 0x1 PUSH1 0xA0 SHL SUB SWAP3 SWAP1 SWAP3 AND SWAP2 SWAP1 SWAP2 OR SWAP1 SSTORE PUSH3 0x1BA JUMP JUMPDEST PUSH1 0x0 DUP1 SLOAD PUSH1 0x1 PUSH1 0x1 PUSH1 0xA0 SHL SUB DUP4 DUP2 AND PUSH1 0x1 PUSH1 0x1 PUSH1 0xA0 SHL SUB NOT DUP4 AND DUP2 OR DUP5 SSTORE PUSH1 0x40 MLOAD SWAP2 SWAP1 SWAP3 AND SWAP3 DUP4 SWAP2 PUSH32 0x8BE0079C531659141344CD1FD0A4F28419497F9722A3DAAFE3B4186F6B6457E0 SWAP2 SWAP1 LOG3 POP POP JUMP JUMPDEST PUSH1 0x0 PUSH1 0x20 DUP3 DUP5 SUB SLT ISZERO PUSH3 0x19B JUMPI PUSH1 0x0 DUP1 REVERT JUMPDEST DUP2 MLOAD PUSH1 0x1 PUSH1 0x1 PUSH1 0xA0 SHL SUB DUP2 AND DUP2 EQ PUSH3 0x1B3 JUMPI PUSH1 0x0 DUP1 REVERT JUMPDEST SWAP4 SWAP3 POP POP POP JUMP JUMPDEST PUSH2 0x2165 DUP1 PUSH3 0x1CA PUSH1 0x0 CODECOPY PUSH1 0x0 RETURN INVALID PUSH1 0x80 PUSH1 0x40 MSTORE PUSH1 0x4 CALLDATASIZE LT PUSH2 0x20F JUMPI PUSH1 0x0 CALLDATALOAD PUSH1 0xE0 SHR DUP1 PUSH4 0x9E8B95A9 GT PUSH2 0x118 JUMPI DUP1 PUSH4 0xED3668AF GT PUSH2 0xA0 JUMPI DUP1 PUSH4 0xF4CD141F GT PUSH2 0x6F JUMPI DUP1 PUSH4 0xF4CD141F EQ PUSH2 0x747 JUMPI DUP1 PUSH4 0xFADEF9F8 EQ PUSH2 0x767 JUMPI DUP1 PUSH4 0xFB3B6429 EQ PUSH2 0x77D JUMPI DUP1 PUSH4 0xFBAC3951 EQ PUSH2 0x79D JUMPI DUP1 PUSH4 0xFFA08464 EQ PUSH2 0x7BD JUMPI PUSH1 0x0 DUP1 REVERT JUMPDEST DUP1 PUSH4 0xED3668AF EQ PUSH2 0x6DB JUMPI DUP1 PUSH4 0xEFBF74E6 EQ PUSH2 0x6F1 JUMPI DUP1 PUSH4 0xF0F44260 EQ PUSH2 0x707 JUMPI DUP1 PUSH4 0xF2FDE38B EQ PUSH2 0x727 JUMPI PUSH1 0x0 DUP1 REVERT JUMPDEST DUP1 PUSH4 0xC81ED361 GT PUSH2 0xE7 JUMPI DUP1 PUSH4 0xC81ED361 EQ PUSH2 0x645 JUMPI DUP1 PUSH4 0xD524F195 EQ PUSH2 0x665 JUMPI DUP1 PUSH4 0xD9B50172 EQ PUSH2 0x685 JUMPI DUP1 PUSH4 0xE3064A77 EQ PUSH2 0x69B JUMPI DUP1 PUSH4 0xE8236A3E EQ PUSH2 0x6BB JUMPI PUSH1 0x0 DUP1 REVERT JUMPDEST DUP1 PUSH4 0x9E8B95A9 EQ PUSH2 0x5C3 JUMPI DUP1 PUSH4 0xA23BA185 EQ PUSH2 0x5D9 JUMPI DUP1 PUSH4 0xBE9472CC EQ PUSH2 0x5F3 JUMPI DUP1 PUSH4 0xBFA8B3B9 EQ PUSH2 0x625 JUMPI PUSH1 0x0 DUP1 REVERT JUMPDEST DUP1 PUSH4 0x6CA944B7 GT PUSH2 0x19B JUMPI DUP1 PUSH4 0x76C7D677 GT PUSH2 0x16A JUMPI DUP1 PUSH4 0x76C7D677 EQ PUSH2 0x53F JUMPI DUP1 PUSH4 0x831518B7 EQ PUSH2 0x55F JUMPI DUP1 PUSH4 0x861A1412 EQ PUSH2 0x575 JUMPI DUP1 PUSH4 0x881A5AA7 EQ PUSH2 0x58B JUMPI DUP1 PUSH4 0x8DA5CB5B EQ PUSH2 0x5A5 JUMPI PUSH1 0x0 DUP1 REVERT JUMPDEST DUP1 PUSH4 0x6CA944B7 EQ PUSH2 0x410 JUMPI DUP1 PUSH4 0x6EAAE824 EQ PUSH2 0x4E6 JUMPI DUP1 PUSH4 0x715018A6 EQ PUSH2 0x506 JUMPI DUP1 PUSH4 0x734F2A28 EQ PUSH2 0x51B JUMPI PUSH1 0x0 DUP1 REVERT JUMPDEST DUP1 PUSH4 0x4A4E3BD5 GT PUSH2 0x1E2 JUMPI DUP1 PUSH4 0x4A4E3BD5 EQ PUSH2 0x370 JUMPI DUP1 PUSH4 0x51858E27 EQ PUSH2 0x385 JUMPI DUP1 PUSH4 0x54B82221 EQ PUSH2 0x39A JUMPI DUP1 PUSH4 0x5C975ABB EQ PUSH2 0x3AD JUMPI DUP1 PUSH4 0x61D027B3 EQ PUSH2 0x3D8 JUMPI PUSH1 0x0 DUP1 REVERT JUMPDEST DUP1 PUSH4 0x1C1AA0D EQ PUSH2 0x214 JUMPI DUP1 PUSH4 0x2E760476 EQ PUSH2 0x236 JUMPI DUP1 PUSH4 0x335552DE EQ PUSH2 0x249 JUMPI DUP1 PUSH4 0x414363E6 EQ PUSH2 0x340 JUMPI JUMPDEST PUSH1 0x0 DUP1 REVERT JUMPDEST CALLVALUE DUP1 ISZERO PUSH2 0x220 JUMPI PUSH1 0x0 DUP1 REVERT JUMPDEST POP PUSH2 0x234 PUSH2 0x22F CALLDATASIZE PUSH1 0x4 PUSH2 0x1F00 JUMP JUMPDEST PUSH2 0x7D3 JUMP JUMPDEST STOP JUMPDEST PUSH2 0x234 PUSH2 0x244 CALLDATASIZE PUSH1 0x4 PUSH2 0x1F35 JUMP JUMPDEST PUSH2 0x837 JUMP JUMPDEST CALLVALUE DUP1 ISZERO PUSH2 0x255 JUMPI PUSH1 0x0 DUP1 REVERT JUMPDEST POP PUSH2 0x30B PUSH2 0x264 CALLDATASIZE PUSH1 0x4 PUSH2 0x1F5F JUMP JUMPDEST PUSH1 0x1 PUSH1 0x1 PUSH1 0xA0 SHL SUB SWAP1 DUP2 AND PUSH1 0x0 SWAP1 DUP2 MSTORE PUSH1 0x5 PUSH1 0x20 DUP2 DUP2 MSTORE PUSH1 0x40 SWAP3 DUP4 SWAP1 KECCAK256 DUP4 MLOAD PUSH2 0x140 DUP2 ADD DUP6 MSTORE DUP2 SLOAD DUP2 MSTORE PUSH1 0x1 DUP3 ADD SLOAD SWAP3 DUP2 ADD SWAP3 SWAP1 SWAP3 MSTORE PUSH1 0x2 DUP2 ADD SLOAD DUP6 AND SWAP4 DUP3 ADD SWAP4 SWAP1 SWAP4 MSTORE PUSH1 0x3 DUP4 ADD SLOAD PUSH1 0x60 DUP3 ADD DUP2 SWAP1 MSTORE PUSH1 0x4 DUP5 ADD SLOAD PUSH1 0x80 DUP4 ADD DUP2 SWAP1 MSTORE SWAP3 DUP5 ADD SLOAD SWAP1 SWAP5 AND PUSH1 0xA0 DUP3 ADD DUP2 SWAP1 MSTORE PUSH1 0x6 DUP5 ADD SLOAD PUSH1 0xC0 DUP4 ADD DUP2 SWAP1 MSTORE PUSH1 0x7 DUP6 ADD SLOAD PUSH1 0xE0 DUP5 ADD DUP2 SWAP1 MSTORE PUSH1 0x8 DUP7 ADD SLOAD PUSH2 0x100 DUP6 ADD MSTORE PUSH1 0x9 SWAP1 SWAP6 ADD SLOAD PUSH2 0x120 SWAP1 SWAP4 ADD SWAP3 SWAP1 SWAP3 MSTORE SWAP2 SWAP5 SWAP2 SWAP4 SWAP1 SWAP3 SWAP1 SWAP2 JUMP JUMPDEST PUSH1 0x40 DUP1 MLOAD SWAP6 DUP7 MSTORE PUSH1 0x1 PUSH1 0x1 PUSH1 0xA0 SHL SUB SWAP1 SWAP5 AND PUSH1 0x20 DUP7 ADD MSTORE SWAP3 DUP5 ADD SWAP2 SWAP1 SWAP2 MSTORE PUSH1 0x60 DUP4 ADD MSTORE PUSH1 0x80 DUP3 ADD MSTORE PUSH1 0xA0 ADD JUMPDEST PUSH1 0x40 MLOAD DUP1 SWAP2 SUB SWAP1 RETURN JUMPDEST CALLVALUE DUP1 ISZERO PUSH2 0x34C JUMPI PUSH1 0x0 DUP1 REVERT JUMPDEST POP PUSH2 0x360 PUSH2 0x35B CALLDATASIZE PUSH1 0x4 PUSH2 0x1F5F JUMP JUMPDEST PUSH2 0xB09 JUMP JUMPDEST PUSH1 0x40 MLOAD PUSH2 0x337 SWAP5 SWAP4 SWAP3 SWAP2 SWAP1 PUSH2 0x1FB9 JUMP JUMPDEST CALLVALUE DUP1 ISZERO PUSH2 0x37C JUMPI PUSH1 0x0 DUP1 REVERT JUMPDEST POP PUSH2 0x234 PUSH2 0xC8D JUMP JUMPDEST CALLVALUE DUP1 ISZERO PUSH2 0x391 JUMPI PUSH1 0x0 DUP1 REVERT JUMPDEST POP PUSH2 0x234 PUSH2 0xCD3 JUMP JUMPDEST PUSH2 0x234 PUSH2 0x3A8 CALLDATASIZE PUSH1 0x4 PUSH2 0x1F35 JUMP JUMPDEST PUSH2 0xD13 JUMP JUMPDEST CALLVALUE DUP1 ISZERO PUSH2 0x3B9 JUMPI PUSH1 0x0 DUP1 REVERT JUMPDEST POP PUSH1 0x0 SLOAD PUSH1 0x1 PUSH1 0xA0 SHL SWAP1 DIV PUSH1 0xFF AND JUMPDEST PUSH1 0x40 MLOAD SWAP1 ISZERO ISZERO DUP2 MSTORE PUSH1 0x20 ADD PUSH2 0x337 JUMP JUMPDEST CALLVALUE DUP1 ISZERO PUSH2 0x3E4 JUMPI PUSH1 0x0 DUP1 REVERT JUMPDEST POP PUSH1 0x6 SLOAD PUSH2 0x3F8 SWAP1 PUSH1 0x1 PUSH1 0x1 PUSH1 0xA0 SHL SUB AND DUP2 JUMP JUMPDEST PUSH1 0x40 MLOAD PUSH1 0x1 PUSH1 0x1 PUSH1 0xA0 SHL SUB SWAP1 SWAP2 AND DUP2 MSTORE PUSH1 0x20 ADD PUSH2 0x337 JUMP JUMPDEST CALLVALUE DUP1 ISZERO PUSH2 0x41C JUMPI PUSH1 0x0 DUP1 REVERT JUMPDEST POP PUSH2 0x489 PUSH2 0x42B CALLDATASIZE PUSH1 0x4 PUSH2 0x1F5F JUMP JUMPDEST PUSH1 0x5 PUSH1 0x20 DUP2 SWAP1 MSTORE PUSH1 0x0 SWAP2 DUP3 MSTORE PUSH1 0x40 SWAP1 SWAP2 KECCAK256 DUP1 SLOAD PUSH1 0x1 DUP3 ADD SLOAD PUSH1 0x2 DUP4 ADD SLOAD PUSH1 0x3 DUP5 ADD SLOAD PUSH1 0x4 DUP6 ADD SLOAD SWAP6 DUP6 ADD SLOAD PUSH1 0x6 DUP7 ADD SLOAD PUSH1 0x7 DUP8 ADD SLOAD PUSH1 0x8 DUP9 ADD SLOAD PUSH1 0x9 SWAP1 SWAP9 ADD SLOAD SWAP7 SWAP9 SWAP6 SWAP8 PUSH1 0x1 PUSH1 0x1 PUSH1 0xA0 SHL SUB SWAP6 DUP7 AND SWAP8 SWAP5 SWAP7 SWAP6 SWAP1 SWAP4 AND SWAP4 SWAP2 SWAP3 SWAP1 SWAP2 DUP11 JUMP JUMPDEST PUSH1 0x40 DUP1 MLOAD SWAP11 DUP12 MSTORE PUSH1 0x20 DUP12 ADD SWAP10 SWAP1 SWAP10 MSTORE PUSH1 0x1 PUSH1 0x1 PUSH1 0xA0 SHL SUB SWAP8 DUP9 AND SWAP9 DUP11 ADD SWAP9 SWAP1 SWAP9 MSTORE PUSH1 0x60 DUP10 ADD SWAP6 SWAP1 SWAP6 MSTORE PUSH1 0x80 DUP9 ADD SWAP4 SWAP1 SWAP4 MSTORE SWAP4 AND PUSH1 0xA0 DUP7 ADD MSTORE PUSH1 0xC0 DUP6 ADD SWAP3 SWAP1 SWAP3 MSTORE PUSH1 0xE0 DUP5 ADD SWAP2 SWAP1 SWAP2 MSTORE PUSH2 0x100 DUP4 ADD MSTORE PUSH2 0x120 DUP3 ADD MSTORE PUSH2 0x140 ADD PUSH2 0x337 JUMP JUMPDEST CALLVALUE DUP1 ISZERO PUSH2 0x4F2 JUMPI PUSH1 0x0 DUP1 REVERT JUMPDEST POP PUSH2 0x234 PUSH2 0x501 CALLDATASIZE PUSH1 0x4 PUSH2 0x1F00 JUMP JUMPDEST PUSH2 0x125C JUMP JUMPDEST CALLVALUE DUP1 ISZERO PUSH2 0x512 JUMPI PUSH1 0x0 DUP1 REVERT JUMPDEST POP PUSH2 0x234 PUSH2 0x12A5 JUMP JUMPDEST CALLVALUE DUP1 ISZERO PUSH2 0x527 JUMPI PUSH1 0x0 DUP1 REVERT JUMPDEST POP PUSH2 0x531 PUSH1 0x3 SLOAD DUP2 JUMP JUMPDEST PUSH1 0x40 MLOAD SWAP1 DUP2 MSTORE PUSH1 0x20 ADD PUSH2 0x337 JUMP JUMPDEST CALLVALUE DUP1 ISZERO PUSH2 0x54B JUMPI PUSH1 0x0 DUP1 REVERT JUMPDEST POP PUSH2 0x234 PUSH2 0x55A CALLDATASIZE PUSH1 0x4 PUSH2 0x1F5F JUMP JUMPDEST PUSH2 0x12B9 JUMP JUMPDEST CALLVALUE DUP1 ISZERO PUSH2 0x56B JUMPI PUSH1 0x0 DUP1 REVERT JUMPDEST POP PUSH2 0x531 PUSH1 0x7 SLOAD DUP2 JUMP JUMPDEST CALLVALUE DUP1 ISZERO PUSH2 0x581 JUMPI PUSH1 0x0 DUP1 REVERT JUMPDEST POP PUSH2 0x531 PUSH1 0x8 SLOAD DUP2 JUMP JUMPDEST CALLVALUE DUP1 ISZERO PUSH2 0x597 JUMPI PUSH1 0x0 DUP1 REVERT JUMPDEST POP PUSH1 0xB SLOAD PUSH2 0x3C8 SWAP1 PUSH1 0xFF AND DUP2 JUMP JUMPDEST CALLVALUE DUP1 ISZERO PUSH2 0x5B1 JUMPI PUSH1 0x0 DUP1 REVERT JUMPDEST POP PUSH1 0x0 SLOAD PUSH1 0x1 PUSH1 0x1 PUSH1 0xA0 SHL SUB AND PUSH2 0x3F8 JUMP JUMPDEST CALLVALUE DUP1 ISZERO PUSH2 0x5CF JUMPI PUSH1 0x0 DUP1 REVERT JUMPDEST POP PUSH2 0x531 PUSH1 0xA SLOAD DUP2 JUMP JUMPDEST CALLVALUE DUP1 ISZERO PUSH2 0x5E5 JUMPI PUSH1 0x0 DUP1 REVERT JUMPDEST POP PUSH1 0xE SLOAD PUSH2 0x3C8 SWAP1 PUSH1 0xFF AND DUP2 JUMP JUMPDEST CALLVALUE DUP1 ISZERO PUSH2 0x5FF JUMPI PUSH1 0x0 DUP1 REVERT JUMPDEST POP PUSH2 0x613 PUSH2 0x60E CALLDATASIZE PUSH1 0x4 PUSH2 0x1F5F JUMP JUMPDEST PUSH2 0x1846 JUMP JUMPDEST PUSH1 0x40 MLOAD PUSH2 0x337 SWAP7 SWAP6 SWAP5 SWAP4 SWAP3 SWAP2 SWAP1 PUSH2 0x1FE3 JUMP JUMPDEST CALLVALUE DUP1 ISZERO PUSH2 0x631 JUMPI PUSH1 0x0 DUP1 REVERT JUMPDEST POP PUSH2 0x234 PUSH2 0x640 CALLDATASIZE PUSH1 0x4 PUSH2 0x1F00 JUMP JUMPDEST PUSH2 0x19A7 JUMP JUMPDEST CALLVALUE DUP1 ISZERO PUSH2 0x651 JUMPI PUSH1 0x0 DUP1 REVERT JUMPDEST POP PUSH2 0x234 PUSH2 0x660 CALLDATASIZE PUSH1 0x4 PUSH2 0x2034 JUMP JUMPDEST PUSH2 0x19F5 JUMP JUMPDEST CALLVALUE DUP1 ISZERO PUSH2 0x671 JUMPI PUSH1 0x0 DUP1 REVERT JUMPDEST POP PUSH2 0x531 PUSH2 0x680 CALLDATASIZE PUSH1 0x4 PUSH2 0x1F5F JUMP JUMPDEST PUSH2 0x1A10 JUMP JUMPDEST CALLVALUE DUP1 ISZERO PUSH2 0x691 JUMPI PUSH1 0x0 DUP1 REVERT JUMPDEST POP PUSH2 0x531 PUSH1 0xC SLOAD DUP2 JUMP JUMPDEST CALLVALUE DUP1 ISZERO PUSH2 0x6A7 JUMPI PUSH1 0x0 DUP1 REVERT JUMPDEST POP PUSH2 0x234 PUSH2 0x6B6 CALLDATASIZE PUSH1 0x4 PUSH2 0x2051 JUMP JUMPDEST PUSH2 0x1B3C JUMP JUMPDEST CALLVALUE DUP1 ISZERO PUSH2 0x6C7 JUMPI PUSH1 0x0 DUP1 REVERT JUMPDEST POP PUSH2 0x234 PUSH2 0x6D6 CALLDATASIZE PUSH1 0x4 PUSH2 0x1F00 JUMP JUMPDEST PUSH2 0x1BB7 JUMP JUMPDEST CALLVALUE DUP1 ISZERO PUSH2 0x6E7 JUMPI PUSH1 0x0 DUP1 REVERT JUMPDEST POP PUSH2 0x531 PUSH1 0x9 SLOAD DUP2 JUMP JUMPDEST CALLVALUE DUP1 ISZERO PUSH2 0x6FD JUMPI PUSH1 0x0 DUP1 REVERT JUMPDEST POP PUSH2 0x531 PUSH1 0x4 SLOAD DUP2 JUMP JUMPDEST CALLVALUE DUP1 ISZERO PUSH2 0x713 JUMPI PUSH1 0x0 DUP1 REVERT JUMPDEST POP PUSH2 0x234 PUSH2 0x722 CALLDATASIZE PUSH1 0x4 PUSH2 0x1F5F JUMP JUMPDEST PUSH2 0x1BE5 JUMP JUMPDEST CALLVALUE DUP1 ISZERO PUSH2 0x733 JUMPI PUSH1 0x0 DUP1 REVERT JUMPDEST POP PUSH2 0x234 PUSH2 0x742 CALLDATASIZE PUSH1 0x4 PUSH2 0x1F5F JUMP JUMPDEST PUSH2 0x1C36 JUMP JUMPDEST CALLVALUE DUP1 ISZERO PUSH2 0x753 JUMPI PUSH1 0x0 DUP1 REVERT JUMPDEST POP PUSH1 0x1 SLOAD PUSH2 0x3F8 SWAP1 PUSH1 0x1 PUSH1 0x1 PUSH1 0xA0 SHL SUB AND DUP2 JUMP JUMPDEST CALLVALUE DUP1 ISZERO PUSH2 0x773 JUMPI PUSH1 0x0 DUP1 REVERT JUMPDEST POP PUSH2 0x531 PUSH1 0x2 SLOAD DUP2 JUMP JUMPDEST CALLVALUE DUP1 ISZERO PUSH2 0x789 JUMPI PUSH1 0x0 DUP1 REVERT JUMPDEST POP PUSH2 0x234 PUSH2 0x798 CALLDATASIZE PUSH1 0x4 PUSH2 0x1F00 JUMP JUMPDEST PUSH2 0x1C71 JUMP JUMPDEST CALLVALUE DUP1 ISZERO PUSH2 0x7A9 JUMPI PUSH1 0x0 DUP1 REVERT JUMPDEST POP PUSH2 0x3C8 PUSH2 0x7B8 CALLDATASIZE PUSH1 0x4 PUSH2 0x1F5F JUMP JUMPDEST PUSH2 0x1CC1 JUMP JUMPDEST CALLVALUE DUP1 ISZERO PUSH2 0x7C9 JUMPI PUSH1 0x0 DUP1 REVERT JUMPDEST POP PUSH2 0x531 PUSH1 0xD SLOAD DUP2 JUMP JUMPDEST PUSH2 0x7DB PUSH2 0x1CF5 JUMP JUMPDEST PUSH2 0xE10 DUP2 LT ISZERO PUSH2 0x832 JUMPI PUSH1 0x40 MLOAD PUSH3 0x461BCD PUSH1 0xE5 SHL DUP2 MSTORE PUSH1 0x20 PUSH1 0x4 DUP3 ADD MSTORE PUSH1 0x19 PUSH1 0x24 DUP3 ADD MSTORE PUSH32 0x6368616C6C656E676557696E646F7720746F6F20736D616C6C00000000000000 PUSH1 0x44 DUP3 ADD MSTORE PUSH1 0x64 ADD JUMPDEST PUSH1 0x40 MLOAD DUP1 SWAP2 SUB SWAP1 REVERT JUMPDEST PUSH1 0x8 SSTORE JUMP JUMPDEST PUSH2 0x83F PUSH2 0x1D22 JUMP JUMPDEST PUSH1 0x1 PUSH1 0x1 PUSH1 0xA0 SHL SUB DUP1 DUP4 AND PUSH1 0x0 SWAP1 DUP2 MSTORE PUSH1 0x5 PUSH1 0x20 DUP2 DUP2 MSTORE PUSH1 0x40 DUP1 DUP5 KECCAK256 DUP2 MLOAD PUSH2 0x140 DUP2 ADD DUP4 MSTORE DUP2 SLOAD DUP1 DUP3 MSTORE PUSH1 0x1 DUP4 ADD SLOAD SWAP5 DUP3 ADD SWAP5 SWAP1 SWAP5 MSTORE PUSH1 0x2 DUP3 ADD SLOAD DUP8 AND SWAP3 DUP2 ADD SWAP3 SWAP1 SWAP3 MSTORE PUSH1 0x3 DUP2 ADD SLOAD PUSH1 0x60 DUP4 ADD MSTORE PUSH1 0x4 DUP2 ADD SLOAD PUSH1 0x80 DUP4 ADD MSTORE SWAP3 DUP4 ADD SLOAD SWAP1 SWAP5 AND PUSH1 0xA0 DUP6 ADD MSTORE PUSH1 0x6 DUP3 ADD SLOAD PUSH1 0xC0 DUP6 ADD MSTORE PUSH1 0x7 DUP3 ADD SLOAD PUSH1 0xE0 DUP6 ADD MSTORE PUSH1 0x8 DUP3 ADD SLOAD PUSH2 0x100 DUP6 ADD MSTORE PUSH1 0x9 SWAP1 SWAP2 ADD SLOAD PUSH2 0x120 DUP5 ADD MSTORE SWAP1 SUB PUSH2 0x8ED JUMPI PUSH1 0x40 MLOAD PUSH4 0xEC256B19 PUSH1 0xE0 SHL DUP2 MSTORE PUSH1 0x4 ADD PUSH1 0x40 MLOAD DUP1 SWAP2 SUB SWAP1 REVERT JUMPDEST DUP1 PUSH1 0x80 ADD MLOAD PUSH1 0x0 SUB PUSH2 0x912 JUMPI PUSH1 0x40 MLOAD PUSH4 0xF703A35 PUSH1 0xE3 SHL DUP2 MSTORE PUSH1 0x4 ADD PUSH1 0x40 MLOAD DUP1 SWAP2 SUB SWAP1 REVERT JUMPDEST DUP1 PUSH1 0x80 ADD MLOAD TIMESTAMP GT ISZERO PUSH2 0x937 JUMPI PUSH1 0x40 MLOAD PUSH4 0x864BC473 PUSH1 0xE0 SHL DUP2 MSTORE PUSH1 0x4 ADD PUSH1 0x40 MLOAD DUP1 SWAP2 SUB SWAP1 REVERT JUMPDEST PUSH1 0xA0 DUP2 ADD MLOAD PUSH1 0x1 PUSH1 0x1 PUSH1 0xA0 SHL SUB AND ISZERO PUSH2 0x963 JUMPI PUSH1 0x40 MLOAD PUSH4 0x4DDB6327 PUSH1 0xE1 SHL DUP2 MSTORE PUSH1 0x4 ADD PUSH1 0x40 MLOAD DUP1 SWAP2 SUB SWAP1 REVERT JUMPDEST PUSH1 0xE SLOAD PUSH1 0xFF AND DUP1 ISZERO PUSH2 0x9DF JUMPI POP PUSH1 0x1 SLOAD PUSH1 0x40 MLOAD PUSH4 0xFEE4097 PUSH1 0xE1 SHL DUP2 MSTORE PUSH1 0x4 DUP2 ADD DUP5 SWAP1 MSTORE PUSH1 0x1 PUSH1 0x1 PUSH1 0xA0 SHL SUB SWAP1 SWAP2 AND SWAP1 PUSH4 0x1FDC812E SWAP1 PUSH1 0x24 ADD PUSH1 0x20 PUSH1 0x40 MLOAD DUP1 DUP4 SUB DUP2 DUP7 GAS STATICCALL ISZERO DUP1 ISZERO PUSH2 0x9B9 JUMPI RETURNDATASIZE PUSH1 0x0 DUP1 RETURNDATACOPY RETURNDATASIZE PUSH1 0x0 REVERT JUMPDEST POP POP POP POP PUSH1 0x40 MLOAD RETURNDATASIZE PUSH1 0x1F NOT PUSH1 0x1F DUP3 ADD AND DUP3 ADD DUP1 PUSH1 0x40 MSTORE POP DUP2 ADD SWAP1 PUSH2 0x9DD SWAP2 SWAP1 PUSH2 0x2073 JUMP JUMPDEST ISZERO JUMPDEST ISZERO PUSH2 0xA00 JUMPI PUSH1 0x40 MLOAD PUSH4 0x5CF3229B PUSH1 0xE1 SHL DUP2 MSTORE PUSH1 0x4 DUP2 ADD DUP4 SWAP1 MSTORE PUSH1 0x24 ADD PUSH2 0x829 JUMP JUMPDEST DUP1 MLOAD PUSH1 0x0 SWAP1 PUSH2 0xA11 SWAP1 PUSH1 0x0 NOT PUSH2 0x20A6 JUMP JUMPDEST SWAP1 POP DUP1 DUP4 EQ PUSH2 0xA33 JUMPI PUSH1 0x40 MLOAD PUSH4 0x697AD25 PUSH1 0xE5 SHL DUP2 MSTORE PUSH1 0x4 ADD PUSH1 0x40 MLOAD DUP1 SWAP2 SUB SWAP1 REVERT JUMPDEST PUSH1 0x0 PUSH2 0x2710 PUSH1 0x9 SLOAD DUP5 PUSH1 0x60 ADD MLOAD PUSH2 0xA4A SWAP2 SWAP1 PUSH2 0x20BF JUMP JUMPDEST PUSH2 0xA54 SWAP2 SWAP1 PUSH2 0x20D6 JUMP JUMPDEST SWAP1 POP DUP1 CALLVALUE LT ISZERO PUSH2 0xA77 JUMPI PUSH1 0x40 MLOAD PUSH4 0x1EA3BCD1 PUSH1 0xE2 SHL DUP2 MSTORE PUSH1 0x4 ADD PUSH1 0x40 MLOAD DUP1 SWAP2 SUB SWAP1 REVERT JUMPDEST PUSH1 0x1 PUSH1 0x1 PUSH1 0xA0 SHL SUB DUP6 AND PUSH1 0x0 DUP2 DUP2 MSTORE PUSH1 0x5 PUSH1 0x20 DUP2 SWAP1 MSTORE PUSH1 0x40 SWAP2 DUP3 SWAP1 KECCAK256 SWAP1 DUP2 ADD DUP1 SLOAD PUSH1 0x1 PUSH1 0x1 PUSH1 0xA0 SHL SUB NOT AND CALLER SWAP1 DUP2 OR SWAP1 SWAP2 SSTORE PUSH1 0x6 DUP3 ADD DUP9 SWAP1 SSTORE CALLVALUE PUSH1 0x7 SWAP1 SWAP3 ADD DUP3 SWAP1 SSTORE PUSH1 0x80 DUP8 ADD MLOAD SWAP3 MLOAD DUP9 SWAP5 SWAP2 SWAP4 SWAP2 SWAP3 PUSH32 0x3B57E9AC0BBCDC5FC96D0B2ECCC9919BE716FBBD9D075F806680CA25CF2CCCB5 SWAP3 PUSH2 0xAFA SWAP3 SWAP2 DUP3 MSTORE PUSH1 0x20 DUP3 ADD MSTORE PUSH1 0x40 ADD SWAP1 JUMP JUMPDEST PUSH1 0x40 MLOAD DUP1 SWAP2 SUB SWAP1 LOG4 POP POP POP POP POP JUMP JUMPDEST PUSH1 0x1 PUSH1 0x1 PUSH1 0xA0 SHL SUB DUP2 AND PUSH1 0x0 SWAP1 DUP2 MSTORE PUSH1 0x5 PUSH1 0x20 MSTORE PUSH1 0x40 DUP2 KECCAK256 SLOAD DUP2 SWAP1 DUP2 SWAP1 DUP1 DUP3 SUB PUSH2 0xB3E JUMPI POP PUSH1 0x0 SWAP3 POP DUP3 SWAP2 POP DUP2 SWAP1 POP DUP1 PUSH2 0xC86 JUMP JUMPDEST PUSH1 0x1 SLOAD PUSH1 0x40 MLOAD PUSH3 0xD10BB PUSH1 0xE5 SHL DUP2 MSTORE PUSH1 0x4 DUP2 ADD DUP4 SWAP1 MSTORE PUSH1 0x0 PUSH1 0x24 DUP3 ADD MSTORE PUSH1 0x1 PUSH1 0x1 PUSH1 0xA0 SHL SUB SWAP1 SWAP2 AND SWAP1 PUSH4 0x1A21760 SWAP1 PUSH1 0x44 ADD PUSH1 0x40 DUP1 MLOAD DUP1 DUP4 SUB DUP2 DUP7 GAS STATICCALL ISZERO DUP1 ISZERO PUSH2 0xB8C JUMPI RETURNDATASIZE PUSH1 0x0 DUP1 RETURNDATACOPY RETURNDATASIZE PUSH1 0x0 REVERT JUMPDEST POP POP POP POP PUSH1 0x40 MLOAD RETURNDATASIZE PUSH1 0x1F NOT PUSH1 0x1F DUP3 ADD AND DUP3 ADD DUP1 PUSH1 0x40 MSTORE POP DUP2 ADD SWAP1 PUSH2 0xBB0 SWAP2 SWAP1 PUSH2 0x20F8 JUMP JUMPDEST SWAP1 SWAP5 POP SWAP3 POP PUSH1 0x0 PUSH2 0xBC3 DUP3 PUSH1 0x0 NOT PUSH2 0x20A6 JUMP JUMPDEST PUSH1 0x1 SLOAD PUSH1 0x40 MLOAD PUSH3 0xD10BB PUSH1 0xE5 SHL DUP2 MSTORE PUSH1 0x4 DUP2 ADD DUP4 SWAP1 MSTORE PUSH1 0x0 PUSH1 0x24 DUP3 ADD DUP2 SWAP1 MSTORE SWAP3 SWAP4 POP PUSH1 0x1 PUSH1 0x1 PUSH1 0xA0 SHL SUB SWAP1 SWAP2 AND SWAP1 PUSH4 0x1A21760 SWAP1 PUSH1 0x44 ADD PUSH1 0x40 DUP1 MLOAD DUP1 DUP4 SUB DUP2 DUP7 GAS STATICCALL ISZERO DUP1 ISZERO PUSH2 0xC16 JUMPI RETURNDATASIZE PUSH1 0x0 DUP1 RETURNDATACOPY RETURNDATASIZE PUSH1 0x0 REVERT JUMPDEST POP POP POP POP PUSH1 0x40 MLOAD RETURNDATASIZE PUSH1 0x1F NOT PUSH1 0x1F DUP3 ADD AND DUP3 ADD DUP1 PUSH1 0x40 MSTORE POP DUP2 ADD SWAP1 PUSH2 0xC3A SWAP2 SWAP1 PUSH2 0x20F8 JUMP JUMPDEST POP SWAP1 POP PUSH1 0x0 DUP7 DUP3 LT PUSH2 0xC4D JUMPI PUSH1 0x0 PUSH2 0xC57 JUMP JUMPDEST PUSH2 0xC57 DUP3 DUP9 PUSH2 0x20A6 JUMP JUMPDEST SWAP1 POP PUSH1 0x3 SLOAD DUP2 LT PUSH2 0xC6B JUMPI PUSH1 0x3 SWAP5 POP PUSH2 0xC82 JUMP JUMPDEST PUSH1 0x2 SLOAD DUP2 LT PUSH2 0xC7D JUMPI PUSH1 0x2 SWAP5 POP PUSH2 0xC82 JUMP JUMPDEST PUSH1 0x1 SWAP5 POP JUMPDEST POP POP POP JUMPDEST SWAP2 SWAP4 POP SWAP2 SWAP4 JUMP JUMPDEST PUSH2 0xC95 PUSH2 0x1CF5 JUMP JUMPDEST PUSH2 0xC9D PUSH2 0x1D4D JUMP JUMPDEST PUSH1 0x40 MLOAD CALLER DUP2 MSTORE PUSH32 0xF5CBF596165CC457B2CD92E8D8450827EE314968160A5696402D75766FC52CAF SWAP1 PUSH1 0x20 ADD JUMPDEST PUSH1 0x40 MLOAD DUP1 SWAP2 SUB SWAP1 LOG1 JUMP JUMPDEST PUSH2 0xCDB PUSH2 0x1CF5 JUMP JUMPDEST PUSH2 0xCE3 PUSH2 0x1D9D JUMP JUMPDEST PUSH1 0x40 MLOAD CALLER DUP2 MSTORE PUSH32 0xB8FAD2FA0ED7A383E747C309EF2C4391D7B65592A48893E57CCC1FAB70791456 SWAP1 PUSH1 0x20 ADD PUSH2 0xCC9 JUMP JUMPDEST PUSH2 0xD1B PUSH2 0x1D22 JUMP JUMPDEST PUSH1 0x1 PUSH1 0x1 PUSH1 0xA0 SHL SUB DUP3 AND PUSH2 0xD42 JUMPI PUSH1 0x40 MLOAD PUSH4 0xD92E233D PUSH1 0xE0 SHL DUP2 MSTORE PUSH1 0x4 ADD PUSH1 0x40 MLOAD DUP1 SWAP2 SUB SWAP1 REVERT JUMPDEST DUP1 PUSH1 0x0 SUB PUSH2 0xD63 JUMPI PUSH1 0x40 MLOAD PUSH4 0xDFA225D5 PUSH1 0xE0 SHL DUP2 MSTORE PUSH1 0x4 ADD PUSH1 0x40 MLOAD DUP1 SWAP2 SUB SWAP1 REVERT JUMPDEST PUSH1 0x1 SLOAD PUSH1 0x40 MLOAD PUSH4 0xFEE4097 PUSH1 0xE1 SHL DUP2 MSTORE PUSH1 0x4 DUP2 ADD DUP4 SWAP1 MSTORE PUSH1 0x1 PUSH1 0x1 PUSH1 0xA0 SHL SUB SWAP1 SWAP2 AND SWAP1 PUSH4 0x1FDC812E SWAP1 PUSH1 0x24 ADD PUSH1 0x20 PUSH1 0x40 MLOAD DUP1 DUP4 SUB DUP2 DUP7 GAS STATICCALL ISZERO DUP1 ISZERO PUSH2 0xDAC JUMPI RETURNDATASIZE PUSH1 0x0 DUP1 RETURNDATACOPY RETURNDATASIZE PUSH1 0x0 REVERT JUMPDEST POP POP POP POP PUSH1 0x40 MLOAD RETURNDATASIZE PUSH1 0x1F NOT PUSH1 0x1F DUP3 ADD AND DUP3 ADD DUP1 PUSH1 0x40 MSTORE POP DUP2 ADD SWAP1 PUSH2 0xDD0 SWAP2 SWAP1 PUSH2 0x2073 JUMP JUMPDEST PUSH2 0xDF0 JUMPI PUSH1 0x40 MLOAD PUSH4 0x5CF3229B PUSH1 0xE1 SHL DUP2 MSTORE PUSH1 0x4 DUP2 ADD DUP3 SWAP1 MSTORE PUSH1 0x24 ADD PUSH2 0x829 JUMP JUMPDEST PUSH1 0x7 SLOAD CALLVALUE LT ISZERO PUSH2 0xE13 JUMPI PUSH1 0x40 MLOAD PUSH4 0x1B8D83E5 PUSH1 0xE2 SHL DUP2 MSTORE PUSH1 0x4 ADD PUSH1 0x40 MLOAD DUP1 SWAP2 SUB SWAP1 REVERT JUMPDEST PUSH1 0x1 SLOAD PUSH1 0x40 MLOAD PUSH3 0xD10BB PUSH1 0xE5 SHL DUP2 MSTORE PUSH1 0x4 DUP2 ADD DUP4 SWAP1 MSTORE PUSH1 0x0 PUSH1 0x24 DUP3 ADD DUP2 SWAP1 MSTORE SWAP2 PUSH1 0x1 PUSH1 0x1 PUSH1 0xA0 SHL SUB AND SWAP1 PUSH4 0x1A21760 SWAP1 PUSH1 0x44 ADD PUSH1 0x40 DUP1 MLOAD DUP1 DUP4 SUB DUP2 DUP7 GAS STATICCALL ISZERO DUP1 ISZERO PUSH2 0xE62 JUMPI RETURNDATASIZE PUSH1 0x0 DUP1 RETURNDATACOPY RETURNDATASIZE PUSH1 0x0 REVERT JUMPDEST POP POP POP POP PUSH1 0x40 MLOAD RETURNDATASIZE PUSH1 0x1F NOT PUSH1 0x1F DUP3 ADD AND DUP3 ADD DUP1 PUSH1 0x40 MSTORE POP DUP2 ADD SWAP1 PUSH2 0xE86 SWAP2 SWAP1 PUSH2 0x20F8 JUMP JUMPDEST POP SWAP1 POP PUSH1 0x1 PUSH1 0x4 SLOAD GT DUP1 ISZERO PUSH2 0xE9C JUMPI POP PUSH1 0x4 SLOAD DUP2 LT JUMPDEST ISZERO PUSH2 0xEBA JUMPI PUSH1 0x40 MLOAD PUSH4 0x3FF39853 PUSH1 0xE1 SHL DUP2 MSTORE PUSH1 0x4 ADD PUSH1 0x40 MLOAD DUP1 SWAP2 SUB SWAP1 REVERT JUMPDEST PUSH1 0x1 PUSH1 0x1 PUSH1 0xA0 SHL SUB DUP1 DUP5 AND PUSH1 0x0 SWAP1 DUP2 MSTORE PUSH1 0x5 PUSH1 0x20 DUP2 DUP2 MSTORE PUSH1 0x40 SWAP3 DUP4 SWAP1 KECCAK256 DUP4 MLOAD PUSH2 0x140 DUP2 ADD DUP6 MSTORE DUP2 SLOAD DUP1 DUP3 MSTORE PUSH1 0x1 DUP4 ADD SLOAD SWAP4 DUP3 ADD SWAP4 SWAP1 SWAP4 MSTORE PUSH1 0x2 DUP3 ADD SLOAD DUP7 AND SWAP5 DUP2 ADD SWAP5 SWAP1 SWAP5 MSTORE PUSH1 0x3 DUP2 ADD SLOAD PUSH1 0x60 DUP6 ADD MSTORE PUSH1 0x4 DUP2 ADD SLOAD PUSH1 0x80 DUP6 ADD MSTORE SWAP2 DUP3 ADD SLOAD SWAP1 SWAP4 AND PUSH1 0xA0 DUP4 ADD MSTORE PUSH1 0x6 DUP2 ADD SLOAD PUSH1 0xC0 DUP4 ADD MSTORE PUSH1 0x7 DUP2 ADD SLOAD PUSH1 0xE0 DUP4 ADD MSTORE PUSH1 0x8 DUP2 ADD SLOAD PUSH2 0x100 DUP4 ADD MSTORE PUSH1 0x9 ADD SLOAD PUSH2 0x120 DUP3 ADD MSTORE SWAP1 ISZERO PUSH2 0x101F JUMPI PUSH1 0x80 DUP2 ADD MLOAD ISZERO DUP1 ISZERO SWAP1 PUSH2 0xF65 JUMPI POP DUP1 PUSH1 0x80 ADD MLOAD TIMESTAMP GT ISZERO JUMPDEST ISZERO PUSH2 0xF83 JUMPI PUSH1 0x40 MLOAD PUSH4 0x7C9D2BA7 PUSH1 0xE0 SHL DUP2 MSTORE PUSH1 0x4 ADD PUSH1 0x40 MLOAD DUP1 SWAP2 SUB SWAP1 REVERT JUMPDEST PUSH1 0x1 SLOAD DUP2 MLOAD PUSH1 0x40 MLOAD PUSH3 0xD10BB PUSH1 0xE5 SHL DUP2 MSTORE PUSH1 0x4 DUP2 ADD SWAP2 SWAP1 SWAP2 MSTORE PUSH1 0x0 PUSH1 0x24 DUP3 ADD DUP2 SWAP1 MSTORE SWAP2 PUSH1 0x1 PUSH1 0x1 PUSH1 0xA0 SHL SUB AND SWAP1 PUSH4 0x1A21760 SWAP1 PUSH1 0x44 ADD PUSH1 0x40 DUP1 MLOAD DUP1 DUP4 SUB DUP2 DUP7 GAS STATICCALL ISZERO DUP1 ISZERO PUSH2 0xFD5 JUMPI RETURNDATASIZE PUSH1 0x0 DUP1 RETURNDATACOPY RETURNDATASIZE PUSH1 0x0 REVERT JUMPDEST POP POP POP POP PUSH1 0x40 MLOAD RETURNDATASIZE PUSH1 0x1F NOT PUSH1 0x1F DUP3 ADD AND DUP3 ADD DUP1 PUSH1 0x40 MSTORE POP DUP2 ADD SWAP1 PUSH2 0xFF9 SWAP2 SWAP1 PUSH2 0x20F8 JUMP JUMPDEST POP SWAP1 POP DUP3 DUP2 GT ISZERO PUSH2 0x101D JUMPI PUSH1 0x40 MLOAD PUSH4 0x581EC51D PUSH1 0xE0 SHL DUP2 MSTORE PUSH1 0x4 ADD PUSH1 0x40 MLOAD DUP1 SWAP2 SUB SWAP1 REVERT JUMPDEST POP JUMPDEST PUSH1 0x0 PUSH2 0x102D DUP5 PUSH1 0x0 NOT PUSH2 0x20A6 JUMP JUMPDEST PUSH1 0x1 SLOAD PUSH1 0x40 MLOAD PUSH3 0xD10BB PUSH1 0xE5 SHL DUP2 MSTORE PUSH1 0x4 DUP2 ADD DUP8 SWAP1 MSTORE PUSH1 0x0 PUSH1 0x24 DUP3 ADD DUP2 SWAP1 MSTORE SWAP3 SWAP4 POP PUSH1 0x1 PUSH1 0x1 PUSH1 0xA0 SHL SUB SWAP1 SWAP2 AND SWAP1 PUSH4 0x1A21760 SWAP1 PUSH1 0x44 ADD PUSH1 0x40 DUP1 MLOAD DUP1 DUP4 SUB DUP2 DUP7 GAS STATICCALL ISZERO DUP1 ISZERO PUSH2 0x1080 JUMPI RETURNDATASIZE PUSH1 0x0 DUP1 RETURNDATACOPY RETURNDATASIZE PUSH1 0x0 REVERT JUMPDEST POP POP POP POP PUSH1 0x40 MLOAD RETURNDATASIZE PUSH1 0x1F NOT PUSH1 0x1F DUP3 ADD AND DUP3 ADD DUP1 PUSH1 0x40 MSTORE POP DUP2 ADD SWAP1 PUSH2 0x10A4 SWAP2 SWAP1 PUSH2 0x20F8 JUMP JUMPDEST POP PUSH1 0x1 SLOAD PUSH1 0x40 MLOAD PUSH3 0xD10BB PUSH1 0xE5 SHL DUP2 MSTORE PUSH1 0x4 DUP2 ADD DUP6 SWAP1 MSTORE PUSH1 0x0 PUSH1 0x24 DUP3 ADD DUP2 SWAP1 MSTORE SWAP3 SWAP4 POP PUSH1 0x1 PUSH1 0x1 PUSH1 0xA0 SHL SUB SWAP1 SWAP2 AND SWAP1 PUSH4 0x1A21760 SWAP1 PUSH1 0x44 ADD PUSH1 0x40 DUP1 MLOAD DUP1 DUP4 SUB DUP2 DUP7 GAS STATICCALL ISZERO DUP1 ISZERO PUSH2 0x10F8 JUMPI RETURNDATASIZE PUSH1 0x0 DUP1 RETURNDATACOPY RETURNDATASIZE PUSH1 0x0 REVERT JUMPDEST POP POP POP POP PUSH1 0x40 MLOAD RETURNDATASIZE PUSH1 0x1F NOT PUSH1 0x1F DUP3 ADD AND DUP3 ADD DUP1 PUSH1 0x40 MSTORE POP DUP2 ADD SWAP1 PUSH2 0x111C SWAP2 SWAP1 PUSH2 0x20F8 JUMP JUMPDEST POP SWAP1 POP PUSH1 0x40 MLOAD DUP1 PUSH2 0x140 ADD PUSH1 0x40 MSTORE DUP1 DUP8 DUP2 MSTORE PUSH1 0x20 ADD TIMESTAMP DUP2 MSTORE PUSH1 0x20 ADD CALLER PUSH1 0x1 PUSH1 0x1 PUSH1 0xA0 SHL SUB AND DUP2 MSTORE PUSH1 0x20 ADD CALLVALUE DUP2 MSTORE PUSH1 0x20 ADD PUSH1 0x8 SLOAD TIMESTAMP PUSH2 0x115A SWAP2 SWAP1 PUSH2 0x211C JUMP JUMPDEST DUP2 MSTORE PUSH1 0x0 PUSH1 0x20 DUP1 DUP4 ADD DUP3 SWAP1 MSTORE PUSH1 0x40 DUP1 DUP5 ADD DUP4 SWAP1 MSTORE PUSH1 0x60 DUP1 DUP6 ADD DUP5 SWAP1 MSTORE PUSH1 0x80 DUP1 DUP7 ADD DUP10 SWAP1 MSTORE PUSH1 0xA0 SWAP6 DUP7 ADD DUP9 SWAP1 MSTORE PUSH1 0x1 PUSH1 0x1 PUSH1 0xA0 SHL SUB DUP15 DUP2 AND DUP1 DUP8 MSTORE PUSH1 0x5 DUP1 DUP8 MSTORE SWAP7 DUP6 SWAP1 KECCAK256 DUP10 MLOAD DUP2 SSTORE DUP10 DUP8 ADD MLOAD PUSH1 0x1 DUP3 ADD SSTORE DUP10 DUP7 ADD MLOAD PUSH1 0x2 DUP3 ADD DUP1 SLOAD PUSH1 0x1 PUSH1 0x1 PUSH1 0xA0 SHL SUB NOT SWAP1 DUP2 AND SWAP3 DUP7 AND SWAP3 SWAP1 SWAP3 OR SWAP1 SSTORE SWAP5 DUP11 ADD MLOAD PUSH1 0x3 DUP3 ADD SSTORE SWAP3 DUP10 ADD MLOAD PUSH1 0x4 DUP5 ADD SSTORE SWAP7 DUP9 ADD MLOAD SWAP6 DUP3 ADD DUP1 SLOAD SWAP1 SWAP4 AND SWAP6 AND SWAP5 SWAP1 SWAP5 OR SWAP1 SSTORE PUSH1 0xC0 DUP6 ADD MLOAD PUSH1 0x6 DUP5 ADD SSTORE PUSH1 0xE0 DUP6 ADD MLOAD PUSH1 0x7 DUP5 ADD SSTORE PUSH2 0x100 DUP6 ADD MLOAD PUSH1 0x8 DUP5 ADD SSTORE PUSH2 0x120 SWAP1 SWAP5 ADD MLOAD PUSH1 0x9 SWAP1 SWAP3 ADD SWAP2 SWAP1 SWAP2 SSTORE SWAP2 MLOAD TIMESTAMP DUP2 MSTORE CALLER SWAP3 DUP10 SWAP3 SWAP2 PUSH32 0xDAD382ABEF697D0A1EF2DC0F7C0FE16CEAC3CE21DE265BFEBD29D116E0A7600F SWAP2 ADD PUSH1 0x40 MLOAD DUP1 SWAP2 SUB SWAP1 LOG4 POP POP POP POP POP POP POP JUMP JUMPDEST PUSH2 0x1264 PUSH2 0x1CF5 JUMP JUMPDEST PUSH1 0x0 DUP2 GT PUSH2 0x12A0 JUMPI PUSH1 0x40 MLOAD PUSH3 0x461BCD PUSH1 0xE5 SHL DUP2 MSTORE PUSH1 0x20 PUSH1 0x4 DUP3 ADD MSTORE PUSH1 0x9 PUSH1 0x24 DUP3 ADD MSTORE PUSH9 0x6D696E426F6E643D3 PUSH1 0xBC SHL PUSH1 0x44 DUP3 ADD MSTORE PUSH1 0x64 ADD PUSH2 0x829 JUMP JUMPDEST PUSH1 0x7 SSTORE JUMP JUMPDEST PUSH2 0x12AD PUSH2 0x1CF5 JUMP JUMPDEST PUSH2 0x12B7 PUSH1 0x0 PUSH2 0x1DE0 JUMP JUMPDEST JUMP JUMPDEST PUSH2 0x12C1 PUSH2 0x1D22 JUMP JUMPDEST PUSH1 0x1 PUSH1 0x1 PUSH1 0xA0 SHL SUB DUP2 AND PUSH1 0x0 SWAP1 DUP2 MSTORE PUSH1 0x5 PUSH1 0x20 MSTORE PUSH1 0x40 DUP2 KECCAK256 DUP1 SLOAD SWAP1 SWAP2 SUB PUSH2 0x12FB JUMPI PUSH1 0x40 MLOAD PUSH4 0xEC256B19 PUSH1 0xE0 SHL DUP2 MSTORE PUSH1 0x4 ADD PUSH1 0x40 MLOAD DUP1 SWAP2 SUB SWAP1 REVERT JUMPDEST DUP1 PUSH1 0x4 ADD SLOAD PUSH1 0x0 SUB PUSH2 0x1320 JUMPI PUSH1 0x40 MLOAD PUSH4 0xF703A35 PUSH1 0xE3 SHL DUP2 MSTORE PUSH1 0x4 ADD PUSH1 0x40 MLOAD DUP1 SWAP2 SUB SWAP1 REVERT JUMPDEST DUP1 PUSH1 0x4 ADD SLOAD TIMESTAMP GT PUSH2 0x1344 JUMPI PUSH1 0x40 MLOAD PUSH4 0x864BC473 PUSH1 0xE0 SHL DUP2 MSTORE PUSH1 0x4 ADD PUSH1 0x40 MLOAD DUP1 SWAP2 SUB SWAP1 REVERT JUMPDEST PUSH1 0x1 SLOAD DUP2 SLOAD PUSH1 0x40 MLOAD PUSH3 0xD10BB PUSH1 0xE5 SHL DUP2 MSTORE PUSH1 0x4 DUP2 ADD SWAP2 SWAP1 SWAP2 MSTORE PUSH1 0x0 PUSH1 0x24 DUP3 ADD DUP2 SWAP1 MSTORE SWAP2 PUSH1 0x1 PUSH1 0x1 PUSH1 0xA0 SHL SUB AND SWAP1 PUSH4 0x1A21760 SWAP1 PUSH1 0x44 ADD PUSH1 0x40 DUP1 MLOAD DUP1 DUP4 SUB DUP2 DUP7 GAS STATICCALL ISZERO DUP1 ISZERO PUSH2 0x1396 JUMPI RETURNDATASIZE PUSH1 0x0 DUP1 RETURNDATACOPY RETURNDATASIZE PUSH1 0x0 REVERT JUMPDEST POP POP POP POP PUSH1 0x40 MLOAD RETURNDATASIZE PUSH1 0x1F NOT PUSH1 0x1F DUP3 ADD AND DUP3 ADD DUP1 PUSH1 0x40 MSTORE POP DUP2 ADD SWAP1 PUSH2 0x13BA SWAP2 SWAP1 PUSH2 0x20F8 JUMP JUMPDEST POP SWAP1 POP PUSH1 0x0 DUP3 PUSH1 0x6 ADD SLOAD PUSH1 0x0 EQ PUSH2 0x1447 JUMPI PUSH1 0x1 SLOAD PUSH1 0x6 DUP5 ADD SLOAD PUSH1 0x40 MLOAD PUSH3 0xD10BB PUSH1 0xE5 SHL DUP2 MSTORE PUSH1 0x4 DUP2 ADD SWAP2 SWAP1 SWAP2 MSTORE PUSH1 0x0 PUSH1 0x24 DUP3 ADD MSTORE PUSH1 0x1 PUSH1 0x1 PUSH1 0xA0 SHL SUB SWAP1 SWAP2 AND SWAP1 PUSH4 0x1A21760 SWAP1 PUSH1 0x44 ADD PUSH1 0x40 DUP1 MLOAD DUP1 DUP4 SUB DUP2 DUP7 GAS STATICCALL ISZERO DUP1 ISZERO PUSH2 0x141F JUMPI RETURNDATASIZE PUSH1 0x0 DUP1 RETURNDATACOPY RETURNDATASIZE PUSH1 0x0 REVERT JUMPDEST POP POP POP POP PUSH1 0x40 MLOAD RETURNDATASIZE PUSH1 0x1F NOT PUSH1 0x1F DUP3 ADD AND DUP3 ADD DUP1 PUSH1 0x40 MSTORE POP DUP2 ADD SWAP1 PUSH2 0x1443 SWAP2 SWAP1 PUSH2 0x20F8 JUMP JUMPDEST POP SWAP1 POP JUMPDEST PUSH1 0x0 DUP4 PUSH1 0x8 ADD SLOAD DUP5 PUSH1 0x9 ADD SLOAD LT PUSH2 0x145F JUMPI PUSH1 0x0 PUSH2 0x1473 JUMP JUMPDEST DUP4 PUSH1 0x9 ADD SLOAD DUP5 PUSH1 0x8 ADD SLOAD PUSH2 0x1473 SWAP2 SWAP1 PUSH2 0x20A6 JUMP JUMPDEST SWAP1 POP PUSH1 0x0 DUP4 DUP4 LT PUSH2 0x1485 JUMPI PUSH1 0x0 PUSH2 0x148F JUMP JUMPDEST PUSH2 0x148F DUP4 DUP6 PUSH2 0x20A6 JUMP JUMPDEST PUSH1 0xB SLOAD SWAP1 SWAP2 POP PUSH1 0xFF AND DUP1 ISZERO PUSH2 0x14B0 JUMPI POP PUSH1 0x5 DUP6 ADD SLOAD PUSH1 0x1 PUSH1 0x1 PUSH1 0xA0 SHL SUB AND ISZERO ISZERO JUMPDEST ISZERO PUSH2 0x15B2 JUMPI PUSH1 0x0 DUP1 DUP4 GT PUSH2 0x14C5 JUMPI PUSH1 0x1 PUSH2 0x14C7 JUMP JUMPDEST DUP3 JUMPDEST SWAP1 POP PUSH1 0x0 DUP3 DUP5 GT PUSH2 0x14F8 JUMPI DUP2 PUSH2 0x14DD DUP6 DUP6 PUSH2 0x20A6 JUMP JUMPDEST PUSH2 0x14E9 SWAP1 PUSH2 0x2710 PUSH2 0x20BF JUMP JUMPDEST PUSH2 0x14F3 SWAP2 SWAP1 PUSH2 0x20D6 JUMP JUMPDEST PUSH2 0x1519 JUMP JUMPDEST DUP2 PUSH2 0x1503 DUP5 DUP7 PUSH2 0x20A6 JUMP JUMPDEST PUSH2 0x150F SWAP1 PUSH2 0x2710 PUSH2 0x20BF JUMP JUMPDEST PUSH2 0x1519 SWAP2 SWAP1 PUSH2 0x20D6 JUMP JUMPDEST SWAP1 POP PUSH1 0xC SLOAD DUP2 LT PUSH2 0x15AF JUMPI PUSH1 0x4 DUP8 ADD SLOAD PUSH1 0xD SLOAD PUSH1 0x0 SWAP1 PUSH2 0x1539 SWAP1 TIMESTAMP PUSH2 0x211C JUMP JUMPDEST PUSH1 0x4 DUP11 ADD DUP2 SWAP1 SSTORE PUSH1 0x40 DUP1 MLOAD DUP5 DUP2 MSTORE PUSH1 0x20 DUP2 ADD DUP4 SWAP1 MSTORE SWAP1 DUP2 ADD DUP9 SWAP1 MSTORE PUSH1 0x60 DUP2 ADD DUP8 SWAP1 MSTORE SWAP1 SWAP2 POP PUSH1 0x1 PUSH1 0x1 PUSH1 0xA0 SHL SUB DUP12 AND SWAP1 PUSH32 0xEA1692683CC63D78120A6B5DA2778964714D2504018338D65302F07B3560D746 SWAP1 PUSH1 0x80 ADD PUSH1 0x40 MLOAD DUP1 SWAP2 SUB SWAP1 LOG2 PUSH1 0x40 MLOAD PUSH4 0x70039C7D PUSH1 0xE1 SHL DUP2 MSTORE PUSH1 0x4 ADD PUSH1 0x40 MLOAD DUP1 SWAP2 SUB SWAP1 REVERT JUMPDEST POP POP JUMPDEST PUSH1 0x0 DUP4 DUP7 PUSH1 0x9 ADD SLOAD PUSH2 0x15C4 SWAP2 SWAP1 PUSH2 0x211C JUMP JUMPDEST DUP6 DUP8 PUSH1 0x8 ADD SLOAD PUSH2 0x15D4 SWAP2 SWAP1 PUSH2 0x211C JUMP JUMPDEST PUSH1 0x2 DUP9 ADD SLOAD PUSH1 0x5 DUP10 ADD DUP1 SLOAD PUSH1 0x3 DUP12 ADD SLOAD PUSH1 0x7 DUP13 ADD DUP1 SLOAD PUSH1 0x0 PUSH1 0x4 DUP16 ADD DUP2 SWAP1 SSTORE PUSH1 0x1 PUSH1 0x1 PUSH1 0xA0 SHL SUB NOT DUP6 AND SWAP1 SWAP6 SSTORE PUSH1 0x6 DUP15 ADD DUP6 SWAP1 SSTORE SWAP1 DUP5 SWAP1 SSTORE SWAP6 SWAP1 SWAP5 GT SWAP6 POP PUSH1 0x1 PUSH1 0x1 PUSH1 0xA0 SHL SUB SWAP3 DUP4 AND SWAP5 SWAP3 AND SWAP3 SWAP2 SWAP1 DUP1 DUP5 PUSH2 0x1693 JUMPI PUSH2 0x1633 DUP7 DUP6 PUSH2 0x1E30 JUMP JUMPDEST PUSH1 0x40 DUP1 MLOAD PUSH1 0x1 DUP2 MSTORE PUSH1 0x20 DUP2 ADD DUP7 SWAP1 MSTORE PUSH1 0x0 SWAP2 DUP2 ADD SWAP2 SWAP1 SWAP2 MSTORE PUSH1 0x1 PUSH1 0x1 PUSH1 0xA0 SHL SUB DUP15 AND SWAP1 PUSH32 0x86750D98A4044AD94B434B83C41945A9C16689DA26B780F332765B544F54E75B SWAP1 PUSH1 0x60 ADD JUMPDEST PUSH1 0x40 MLOAD DUP1 SWAP2 SUB SWAP1 LOG2 POP POP POP POP POP POP POP POP POP POP POP POP POP JUMP JUMPDEST DUP7 ISZERO PUSH2 0x1715 JUMPI PUSH1 0x0 PUSH2 0x2710 PUSH1 0xA SLOAD DUP6 PUSH2 0x16AC SWAP2 SWAP1 PUSH2 0x20BF JUMP JUMPDEST PUSH2 0x16B6 SWAP2 SWAP1 PUSH2 0x20D6 JUMP JUMPDEST SWAP1 POP PUSH2 0x16C2 DUP2 DUP6 PUSH2 0x20A6 JUMP JUMPDEST SWAP3 POP PUSH2 0x16CE DUP2 DUP7 PUSH2 0x211C JUMP JUMPDEST SWAP2 POP PUSH2 0x16DA DUP8 DUP4 PUSH2 0x1E30 JUMP JUMPDEST PUSH1 0x0 DUP4 GT DUP1 ISZERO PUSH2 0x16F4 JUMPI POP PUSH1 0x6 SLOAD PUSH1 0x1 PUSH1 0x1 PUSH1 0xA0 SHL SUB AND ISZERO ISZERO JUMPDEST ISZERO PUSH2 0x170F JUMPI PUSH1 0x6 SLOAD PUSH2 0x170F SWAP1 PUSH1 0x1 PUSH1 0x1 PUSH1 0xA0 SHL SUB AND DUP5 PUSH2 0x1E30 JUMP JUMPDEST POP PUSH2 0x17F8 JUMP JUMPDEST PUSH1 0x0 PUSH2 0x2710 PUSH1 0xA SLOAD DUP7 PUSH2 0x1728 SWAP2 SWAP1 PUSH2 0x20BF JUMP JUMPDEST PUSH2 0x1732 SWAP2 SWAP1 PUSH2 0x20D6 JUMP JUMPDEST SWAP1 POP PUSH2 0x173E DUP2 DUP7 PUSH2 0x20A6 JUMP JUMPDEST SWAP3 POP PUSH2 0x174A DUP2 DUP6 PUSH2 0x211C JUMP JUMPDEST SWAP2 POP PUSH2 0x1756 DUP7 DUP4 PUSH2 0x1E30 JUMP JUMPDEST PUSH1 0x0 DUP4 GT DUP1 ISZERO PUSH2 0x1770 JUMPI POP PUSH1 0x6 SLOAD PUSH1 0x1 PUSH1 0x1 PUSH1 0xA0 SHL SUB AND ISZERO ISZERO JUMPDEST ISZERO PUSH2 0x178B JUMPI PUSH1 0x6 SLOAD PUSH2 0x178B SWAP1 PUSH1 0x1 PUSH1 0x1 PUSH1 0xA0 SHL SUB AND DUP5 PUSH2 0x1E30 JUMP JUMPDEST POP PUSH1 0x1 PUSH1 0x1 PUSH1 0xA0 SHL SUB DUP14 AND PUSH1 0x0 SWAP1 DUP2 MSTORE PUSH1 0x5 PUSH1 0x20 DUP2 SWAP1 MSTORE PUSH1 0x40 DUP3 KECCAK256 DUP3 DUP2 SSTORE PUSH1 0x1 DUP2 ADD DUP4 SWAP1 SSTORE PUSH1 0x2 DUP2 ADD DUP1 SLOAD PUSH1 0x1 PUSH1 0x1 PUSH1 0xA0 SHL SUB NOT SWAP1 DUP2 AND SWAP1 SWAP2 SSTORE PUSH1 0x3 DUP3 ADD DUP5 SWAP1 SSTORE PUSH1 0x4 DUP3 ADD DUP5 SWAP1 SSTORE SWAP2 DUP2 ADD DUP1 SLOAD SWAP1 SWAP3 AND SWAP1 SWAP2 SSTORE PUSH1 0x6 DUP2 ADD DUP3 SWAP1 SSTORE PUSH1 0x7 DUP2 ADD DUP3 SWAP1 SSTORE PUSH1 0x8 DUP2 ADD DUP3 SWAP1 SSTORE PUSH1 0x9 ADD SSTORE JUMPDEST PUSH1 0x40 DUP1 MLOAD DUP9 ISZERO ISZERO DUP2 MSTORE PUSH1 0x20 DUP2 ADD DUP4 SWAP1 MSTORE SWAP1 DUP2 ADD DUP4 SWAP1 MSTORE PUSH1 0x1 PUSH1 0x1 PUSH1 0xA0 SHL SUB DUP15 AND SWAP1 PUSH32 0x86750D98A4044AD94B434B83C41945A9C16689DA26B780F332765B544F54E75B SWAP1 PUSH1 0x60 ADD PUSH2 0x167C JUMP JUMPDEST POP JUMP JUMPDEST PUSH1 0x1 PUSH1 0x1 PUSH1 0xA0 SHL SUB DUP1 DUP3 AND PUSH1 0x0 SWAP1 DUP2 MSTORE PUSH1 0x5 PUSH1 0x20 DUP2 DUP2 MSTORE PUSH1 0x40 DUP1 DUP5 KECCAK256 DUP2 MLOAD PUSH2 0x140 DUP2 ADD DUP4 MSTORE DUP2 SLOAD DUP1 DUP3 MSTORE PUSH1 0x1 DUP4 ADD SLOAD SWAP5 DUP3 ADD DUP6 SWAP1 MSTORE PUSH1 0x2 DUP4 ADD SLOAD DUP9 AND SWAP4 DUP3 ADD DUP5 SWAP1 MSTORE PUSH1 0x3 DUP4 ADD SLOAD PUSH1 0x60 DUP4 ADD MSTORE PUSH1 0x4 DUP4 ADD SLOAD PUSH1 0x80 DUP4 ADD MSTORE SWAP5 DUP3 ADD SLOAD SWAP1 SWAP7 AND PUSH1 0xA0 DUP8 ADD MSTORE PUSH1 0x6 DUP2 ADD SLOAD PUSH1 0xC0 DUP8 ADD MSTORE PUSH1 0x7 DUP2 ADD SLOAD PUSH1 0xE0 DUP8 ADD MSTORE PUSH1 0x8 DUP2 ADD SLOAD PUSH2 0x100 DUP8 ADD MSTORE PUSH1 0x9 ADD SLOAD PUSH2 0x120 DUP7 ADD MSTORE SWAP2 SWAP4 SWAP1 SWAP3 SWAP1 DUP2 SWAP1 DUP2 SWAP1 DUP7 DUP3 SUB PUSH2 0x18FC JUMPI PUSH1 0x0 DUP1 PUSH1 0x0 DUP1 PUSH1 0x0 DUP1 SWAP7 POP SWAP7 POP SWAP7 POP SWAP7 POP SWAP7 POP SWAP7 POP POP PUSH2 0x199E JUMP JUMPDEST PUSH1 0x0 DUP1 PUSH2 0x1908 DUP11 PUSH2 0xB09 JUMP JUMPDEST POP SWAP3 POP POP SWAP2 POP DUP2 SWAP6 POP PUSH1 0x0 DUP10 PUSH1 0x0 NOT PUSH2 0x1921 SWAP2 SWAP1 PUSH2 0x20A6 JUMP JUMPDEST PUSH1 0x1 SLOAD PUSH1 0x40 MLOAD PUSH3 0xD10BB PUSH1 0xE5 SHL DUP2 MSTORE PUSH1 0x4 DUP2 ADD DUP4 SWAP1 MSTORE PUSH1 0x0 PUSH1 0x24 DUP3 ADD MSTORE SWAP2 SWAP3 POP PUSH1 0x1 PUSH1 0x1 PUSH1 0xA0 SHL SUB AND SWAP1 PUSH4 0x1A21760 SWAP1 PUSH1 0x44 ADD PUSH1 0x40 DUP1 MLOAD DUP1 DUP4 SUB DUP2 DUP7 GAS STATICCALL ISZERO DUP1 ISZERO PUSH2 0x1970 JUMPI RETURNDATASIZE PUSH1 0x0 DUP1 RETURNDATACOPY RETURNDATASIZE PUSH1 0x0 REVERT JUMPDEST POP POP POP POP PUSH1 0x40 MLOAD RETURNDATASIZE PUSH1 0x1F NOT PUSH1 0x1F DUP3 ADD AND DUP3 ADD DUP1 PUSH1 0x40 MSTORE POP DUP2 ADD SWAP1 PUSH2 0x1994 SWAP2 SWAP1 PUSH2 0x20F8 JUMP JUMPDEST POP SWAP6 POP SWAP1 SWAP4 POP POP POP POP JUMPDEST SWAP2 SWAP4 SWAP6 POP SWAP2 SWAP4 SWAP6 JUMP JUMPDEST PUSH2 0x19AF PUSH2 0x1CF5 JUMP JUMPDEST PUSH2 0x2710 DUP2 GT ISZERO PUSH2 0x19F0 JUMPI PUSH1 0x40 MLOAD PUSH3 0x461BCD PUSH1 0xE5 SHL DUP2 MSTORE PUSH1 0x20 PUSH1 0x4 DUP3 ADD MSTORE PUSH1 0xC PUSH1 0x24 DUP3 ADD MSTORE PUSH12 0x726577617264203E31303025 PUSH1 0xA0 SHL PUSH1 0x44 DUP3 ADD MSTORE PUSH1 0x64 ADD PUSH2 0x829 JUMP JUMPDEST PUSH1 0xA SSTORE JUMP JUMPDEST PUSH2 0x19FD PUSH2 0x1CF5 JUMP JUMPDEST PUSH1 0xE DUP1 SLOAD PUSH1 0xFF NOT AND SWAP2 ISZERO ISZERO SWAP2 SWAP1 SWAP2 OR SWAP1 SSTORE JUMP JUMPDEST PUSH1 0x0 DUP1 PUSH1 0x0 DUP1 PUSH2 0x1A1F DUP6 PUSH2 0xB09 JUMP JUMPDEST SWAP3 SWAP6 POP SWAP4 POP SWAP1 SWAP2 POP PUSH1 0x0 SWAP1 POP DUP3 PUSH1 0x3 DUP2 GT ISZERO PUSH2 0x1A3D JUMPI PUSH2 0x1A3D PUSH2 0x1F81 JUMP JUMPDEST SUB PUSH2 0x1A4E JUMPI POP PUSH2 0x2710 SWAP5 SWAP4 POP POP POP POP JUMP JUMPDEST PUSH1 0x0 PUSH2 0x1A5C DUP3 PUSH1 0x0 NOT PUSH2 0x20A6 JUMP JUMPDEST PUSH1 0x1 SLOAD PUSH1 0x40 MLOAD PUSH3 0xD10BB PUSH1 0xE5 SHL DUP2 MSTORE PUSH1 0x4 DUP2 ADD DUP4 SWAP1 MSTORE PUSH1 0x0 PUSH1 0x24 DUP3 ADD DUP2 SWAP1 MSTORE SWAP3 SWAP4 POP PUSH1 0x1 PUSH1 0x1 PUSH1 0xA0 SHL SUB SWAP1 SWAP2 AND SWAP1 PUSH4 0x1A21760 SWAP1 PUSH1 0x44 ADD PUSH1 0x40 DUP1 MLOAD DUP1 DUP4 SUB DUP2 DUP7 GAS STATICCALL ISZERO DUP1 ISZERO PUSH2 0x1AAF JUMPI RETURNDATASIZE PUSH1 0x0 DUP1 RETURNDATACOPY RETURNDATASIZE PUSH1 0x0 REVERT JUMPDEST POP POP POP POP PUSH1 0x40 MLOAD RETURNDATASIZE PUSH1 0x1F NOT PUSH1 0x1F DUP3 ADD AND DUP3 ADD DUP1 PUSH1 0x40 MSTORE POP DUP2 ADD SWAP1 PUSH2 0x1AD3 SWAP2 SWAP1 PUSH2 0x20F8 JUMP JUMPDEST POP SWAP1 POP PUSH1 0x0 DUP6 DUP3 LT PUSH2 0x1AE6 JUMPI PUSH1 0x0 PUSH2 0x1AF0 JUMP JUMPDEST PUSH2 0x1AF0 DUP3 DUP8 PUSH2 0x20A6 JUMP JUMPDEST SWAP1 POP PUSH1 0x0 PUSH1 0x3 SLOAD DUP3 GT PUSH2 0x1B03 JUMPI DUP2 PUSH2 0x1B07 JUMP JUMPDEST PUSH1 0x3 SLOAD JUMPDEST PUSH1 0x3 SLOAD SWAP1 SWAP2 POP PUSH2 0x1B19 DUP3 PUSH2 0x2710 PUSH2 0x20BF JUMP JUMPDEST PUSH2 0x1B23 SWAP2 SWAP1 PUSH2 0x20D6 JUMP JUMPDEST PUSH2 0x1B2F SWAP1 PUSH2 0x2710 PUSH2 0x20A6 JUMP JUMPDEST SWAP10 SWAP9 POP POP POP POP POP POP POP POP POP JUMP JUMPDEST PUSH2 0x1B44 PUSH2 0x1CF5 JUMP JUMPDEST PUSH1 0x0 DUP3 GT DUP1 ISZERO PUSH2 0x1B53 JUMPI POP DUP2 DUP2 GT JUMPDEST PUSH2 0x1B70 JUMPI PUSH1 0x40 MLOAD PUSH4 0x2E830893 PUSH1 0xE1 SHL DUP2 MSTORE PUSH1 0x4 ADD PUSH1 0x40 MLOAD DUP1 SWAP2 SUB SWAP1 REVERT JUMPDEST PUSH1 0x2 DUP3 SWAP1 SSTORE PUSH1 0x3 DUP2 SWAP1 SSTORE PUSH1 0x40 DUP1 MLOAD DUP4 DUP2 MSTORE PUSH1 0x20 DUP2 ADD DUP4 SWAP1 MSTORE PUSH32 0xD081F5AFBF5E2859F2BE3D6C573E1CDD6C8FB93B18EC6145427882FE51507B6A SWAP2 ADD PUSH1 0x40 MLOAD DUP1 SWAP2 SUB SWAP1 LOG1 POP POP JUMP JUMPDEST PUSH2 0x1BBF PUSH2 0x1CF5 JUMP JUMPDEST DUP1 PUSH1 0x0 SUB PUSH2 0x1BE0 JUMPI PUSH1 0x40 MLOAD PUSH4 0x441EAAB7 PUSH1 0xE0 SHL DUP2 MSTORE PUSH1 0x4 ADD PUSH1 0x40 MLOAD DUP1 SWAP2 SUB SWAP1 REVERT JUMPDEST PUSH1 0x4 SSTORE JUMP JUMPDEST PUSH2 0x1BED PUSH2 0x1CF5 JUMP JUMPDEST PUSH1 0x1 PUSH1 0x1 PUSH1 0xA0 SHL SUB DUP2 AND PUSH2 0x1C14 JUMPI PUSH1 0x40 MLOAD PUSH4 0xD92E233D PUSH1 0xE0 SHL DUP2 MSTORE PUSH1 0x4 ADD PUSH1 0x40 MLOAD DUP1 SWAP2 SUB SWAP1 REVERT JUMPDEST PUSH1 0x6 DUP1 SLOAD PUSH1 0x1 PUSH1 0x1 PUSH1 0xA0 SHL SUB NOT AND PUSH1 0x1 PUSH1 0x1 PUSH1 0xA0 SHL SUB SWAP3 SWAP1 SWAP3 AND SWAP2 SWAP1 SWAP2 OR SWAP1 SSTORE JUMP JUMPDEST PUSH2 0x1C3E PUSH2 0x1CF5 JUMP JUMPDEST PUSH1 0x1 PUSH1 0x1 PUSH1 0xA0 SHL SUB DUP2 AND PUSH2 0x1C68 JUMPI PUSH1 0x40 MLOAD PUSH4 0x1E4FBDF7 PUSH1 0xE0 SHL DUP2 MSTORE PUSH1 0x0 PUSH1 0x4 DUP3 ADD MSTORE PUSH1 0x24 ADD PUSH2 0x829 JUMP JUMPDEST PUSH2 0x1843 DUP2 PUSH2 0x1DE0 JUMP JUMPDEST PUSH2 0x1C79 PUSH2 0x1CF5 JUMP JUMPDEST PUSH2 0x2710 DUP2 LT ISZERO PUSH2 0x1CBC JUMPI PUSH1 0x40 MLOAD PUSH3 0x461BCD PUSH1 0xE5 SHL DUP2 MSTORE PUSH1 0x20 PUSH1 0x4 DUP3 ADD MSTORE PUSH1 0xE PUSH1 0x24 DUP3 ADD MSTORE PUSH14 0xDAEAD8E8D2E0D8D2CAE4407862F PUSH1 0x93 SHL PUSH1 0x44 DUP3 ADD MSTORE PUSH1 0x64 ADD PUSH2 0x829 JUMP JUMPDEST PUSH1 0x9 SSTORE JUMP JUMPDEST PUSH1 0x0 DUP1 PUSH2 0x1CCD DUP4 PUSH2 0xB09 JUMP JUMPDEST POP SWAP3 POP PUSH1 0x3 SWAP2 POP PUSH2 0x1CDB SWAP1 POP JUMP JUMPDEST DUP2 PUSH1 0x3 DUP2 GT ISZERO PUSH2 0x1CED JUMPI PUSH2 0x1CED PUSH2 0x1F81 JUMP JUMPDEST EQ SWAP4 SWAP3 POP POP POP JUMP JUMPDEST PUSH1 0x0 SLOAD PUSH1 0x1 PUSH1 0x1 PUSH1 0xA0 SHL SUB AND CALLER EQ PUSH2 0x12B7 JUMPI PUSH1 0x40 MLOAD PUSH4 0x118CDAA7 PUSH1 0xE0 SHL DUP2 MSTORE CALLER PUSH1 0x4 DUP3 ADD MSTORE PUSH1 0x24 ADD PUSH2 0x829 JUMP JUMPDEST PUSH1 0x0 SLOAD PUSH1 0x1 PUSH1 0xA0 SHL SWAP1 DIV PUSH1 0xFF AND ISZERO PUSH2 0x12B7 JUMPI PUSH1 0x40 MLOAD PUSH4 0xD93C0665 PUSH1 0xE0 SHL DUP2 MSTORE PUSH1 0x4 ADD PUSH1 0x40 MLOAD DUP1 SWAP2 SUB SWAP1 REVERT JUMPDEST PUSH2 0x1D55 PUSH2 0x1ED6 JUMP JUMPDEST PUSH1 0x0 DUP1 SLOAD PUSH1 0xFF PUSH1 0xA0 SHL NOT AND SWAP1 SSTORE PUSH32 0x5DB9EE0A495BF2E6FF9C91A7834C1BA4FDD244A5E8AA4E537BD38AEAE4B073AA CALLER JUMPDEST PUSH1 0x40 MLOAD PUSH1 0x1 PUSH1 0x1 PUSH1 0xA0 SHL SUB SWAP1 SWAP2 AND DUP2 MSTORE PUSH1 0x20 ADD PUSH2 0xCC9 JUMP JUMPDEST PUSH2 0x1DA5 PUSH2 0x1D22 JUMP JUMPDEST PUSH1 0x0 DUP1 SLOAD PUSH1 0xFF PUSH1 0xA0 SHL NOT AND PUSH1 0x1 PUSH1 0xA0 SHL OR SWAP1 SSTORE PUSH32 0x62E78CEA01BEE320CD4E420270B5EA74000D11B0C9F74754EBDBFC544B05A258 PUSH2 0x1D85 CALLER SWAP1 JUMP JUMPDEST PUSH1 0x0 DUP1 SLOAD PUSH1 0x1 PUSH1 0x1 PUSH1 0xA0 SHL SUB DUP4 DUP2 AND PUSH1 0x1 PUSH1 0x1 PUSH1 0xA0 SHL SUB NOT DUP4 AND DUP2 OR DUP5 SSTORE PUSH1 0x40 MLOAD SWAP2 SWAP1 SWAP3 AND SWAP3 DUP4 SWAP2 PUSH32 0x8BE0079C531659141344CD1FD0A4F28419497F9722A3DAAFE3B4186F6B6457E0 SWAP2 SWAP1 LOG3 POP POP JUMP JUMPDEST DUP1 PUSH1 0x0 SUB PUSH2 0x1E3C JUMPI POP POP JUMP JUMPDEST PUSH1 0x0 DUP3 PUSH1 0x1 PUSH1 0x1 PUSH1 0xA0 SHL SUB AND DUP3 PUSH1 0x40 MLOAD PUSH1 0x0 PUSH1 0x40 MLOAD DUP1 DUP4 SUB DUP2 DUP6 DUP8 GAS CALL SWAP3 POP POP POP RETURNDATASIZE DUP1 PUSH1 0x0 DUP2 EQ PUSH2 0x1E89 JUMPI PUSH1 0x40 MLOAD SWAP2 POP PUSH1 0x1F NOT PUSH1 0x3F RETURNDATASIZE ADD AND DUP3 ADD PUSH1 0x40 MSTORE RETURNDATASIZE DUP3 MSTORE RETURNDATASIZE PUSH1 0x0 PUSH1 0x20 DUP5 ADD RETURNDATACOPY PUSH2 0x1E8E JUMP JUMPDEST PUSH1 0x60 SWAP2 POP JUMPDEST POP POP SWAP1 POP DUP1 PUSH2 0x1ED1 JUMPI PUSH1 0x40 MLOAD PUSH3 0x461BCD PUSH1 0xE5 SHL DUP2 MSTORE PUSH1 0x20 PUSH1 0x4 DUP3 ADD MSTORE PUSH1 0xF PUSH1 0x24 DUP3 ADD MSTORE PUSH15 0x1D1C985B9CD9995C8819985A5B1959 PUSH1 0x8A SHL PUSH1 0x44 DUP3 ADD MSTORE PUSH1 0x64 ADD PUSH2 0x829 JUMP JUMPDEST POP POP POP JUMP JUMPDEST PUSH1 0x0 SLOAD PUSH1 0x1 PUSH1 0xA0 SHL SWAP1 DIV PUSH1 0xFF AND PUSH2 0x12B7 JUMPI PUSH1 0x40 MLOAD PUSH4 0x8DFC202B PUSH1 0xE0 SHL DUP2 MSTORE PUSH1 0x4 ADD PUSH1 0x40 MLOAD DUP1 SWAP2 SUB SWAP1 REVERT JUMPDEST PUSH1 0x0 PUSH1 0x20 DUP3 DUP5 SUB SLT ISZERO PUSH2 0x1F12 JUMPI PUSH1 0x0 DUP1 REVERT JUMPDEST POP CALLDATALOAD SWAP2 SWAP1 POP JUMP JUMPDEST DUP1 CALLDATALOAD PUSH1 0x1 PUSH1 0x1 PUSH1 0xA0 SHL SUB DUP2 AND DUP2 EQ PUSH2 0x1F30 JUMPI PUSH1 0x0 DUP1 REVERT JUMPDEST SWAP2 SWAP1 POP JUMP JUMPDEST PUSH1 0x0 DUP1 PUSH1 0x40 DUP4 DUP6 SUB SLT ISZERO PUSH2 0x1F48 JUMPI PUSH1 0x0 DUP1 REVERT JUMPDEST PUSH2 0x1F51 DUP4 PUSH2 0x1F19 JUMP JUMPDEST SWAP5 PUSH1 0x20 SWAP4 SWAP1 SWAP4 ADD CALLDATALOAD SWAP4 POP POP POP JUMP JUMPDEST PUSH1 0x0 PUSH1 0x20 DUP3 DUP5 SUB SLT ISZERO PUSH2 0x1F71 JUMPI PUSH1 0x0 DUP1 REVERT JUMPDEST PUSH2 0x1F7A DUP3 PUSH2 0x1F19 JUMP JUMPDEST SWAP4 SWAP3 POP POP POP JUMP JUMPDEST PUSH4 0x4E487B71 PUSH1 0xE0 SHL PUSH1 0x0 MSTORE PUSH1 0x21 PUSH1 0x4 MSTORE PUSH1 0x24 PUSH1 0x0 REVERT JUMPDEST PUSH1 0x4 DUP2 LT PUSH2 0x1FB5 JUMPI PUSH4 0x4E487B71 PUSH1 0xE0 SHL PUSH1 0x0 MSTORE PUSH1 0x21 PUSH1 0x4 MSTORE PUSH1 0x24 PUSH1 0x0 REVERT JUMPDEST SWAP1 MSTORE JUMP JUMPDEST DUP5 DUP2 MSTORE PUSH1 0x20 DUP2 ADD DUP5 SWAP1 MSTORE PUSH1 0x80 DUP2 ADD PUSH2 0x1FD4 PUSH1 0x40 DUP4 ADD DUP6 PUSH2 0x1F97 JUMP JUMPDEST DUP3 PUSH1 0x60 DUP4 ADD MSTORE SWAP6 SWAP5 POP POP POP POP POP JUMP JUMPDEST DUP7 DUP2 MSTORE PUSH1 0x20 DUP2 ADD DUP7 SWAP1 MSTORE PUSH1 0x1 PUSH1 0x1 PUSH1 0xA0 SHL SUB DUP6 AND PUSH1 0x40 DUP3 ADD MSTORE PUSH1 0x60 DUP2 ADD DUP5 SWAP1 MSTORE PUSH1 0x80 DUP2 ADD DUP4 SWAP1 MSTORE PUSH1 0xC0 DUP2 ADD PUSH2 0x201B PUSH1 0xA0 DUP4 ADD DUP5 PUSH2 0x1F97 JUMP JUMPDEST SWAP8 SWAP7 POP POP POP POP POP POP POP JUMP JUMPDEST DUP1 ISZERO ISZERO DUP2 EQ PUSH2 0x1843 JUMPI PUSH1 0x0 DUP1 REVERT JUMPDEST PUSH1 0x0 PUSH1 0x20 DUP3 DUP5 SUB SLT ISZERO PUSH2 0x2046 JUMPI PUSH1 0x0 DUP1 REVERT JUMPDEST DUP2 CALLDATALOAD PUSH2 0x1F7A DUP2 PUSH2 0x2026 JUMP JUMPDEST PUSH1 0x0 DUP1 PUSH1 0x40 DUP4 DUP6 SUB SLT ISZERO PUSH2 0x2064 JUMPI PUSH1 0x0 DUP1 REVERT JUMPDEST POP POP DUP1 CALLDATALOAD SWAP3 PUSH1 0x20 SWAP1 SWAP2 ADD CALLDATALOAD SWAP2 POP JUMP JUMPDEST PUSH1 0x0 PUSH1 0x20 DUP3 DUP5 SUB SLT ISZERO PUSH2 0x2085 JUMPI PUSH1 0x0 DUP1 REVERT JUMPDEST DUP2 MLOAD PUSH2 0x1F7A DUP2 PUSH2 0x2026 JUMP JUMPDEST PUSH4 0x4E487B71 PUSH1 0xE0 SHL PUSH1 0x0 MSTORE PUSH1 0x11 PUSH1 0x4 MSTORE PUSH1 0x24 PUSH1 0x0 REVERT JUMPDEST DUP2 DUP2 SUB DUP2 DUP2 GT ISZERO PUSH2 0x20B9 JUMPI PUSH2 0x20B9 PUSH2 0x2090 JUMP JUMPDEST SWAP3 SWAP2 POP POP JUMP JUMPDEST DUP1 DUP3 MUL DUP2 ISZERO DUP3 DUP3 DIV DUP5 EQ OR PUSH2 0x20B9 JUMPI PUSH2 0x20B9 PUSH2 0x2090 JUMP JUMPDEST PUSH1 0x0 DUP3 PUSH2 0x20F3 JUMPI PUSH4 0x4E487B71 PUSH1 0xE0 SHL PUSH1 0x0 MSTORE PUSH1 0x12 PUSH1 0x4 MSTORE PUSH1 0x24 PUSH1 0x0 REVERT JUMPDEST POP DIV SWAP1 JUMP JUMPDEST PUSH1 0x0 DUP1 PUSH1 0x40 DUP4 DUP6 SUB SLT ISZERO PUSH2 0x210B JUMPI PUSH1 0x0 DUP1 REVERT JUMPDEST POP POP DUP1 MLOAD PUSH1 0x20 SWAP1 SWAP2 ADD MLOAD SWAP1 SWAP3 SWAP1 SWAP2 POP JUMP JUMPDEST DUP1 DUP3 ADD DUP1 DUP3 GT ISZERO PUSH2 0x20B9 JUMPI PUSH2 0x20B9 PUSH2 0x2090 JUMP INVALID LOG2 PUSH5 0x6970667358 0x22 SLT KECCAK256 DUP16 PUSH15 0xCA61829ED9E262899C135475DABB9 DUP14 SLT SGT PUSH32 0x5EFC3592E782FBC4317D2164736F6C6343000815003300000000000000000000 "},"methodIdentifiers":{"BLOCK_STAKE_THRESHOLD()":"734f2a28","WARN_STAKE_THRESHOLD()":"fadef9f8","challengeBondMultiplierBp()":"ed3668af","challengeThreat(address,uint256)":"2e760476","challengeWindow()":"861a1412","emergencyPause()":"51858e27","emergencyUnpause()":"4a4e3bd5","getDispute(address)":"335552de","getThreatIntel(address)":"be9472cc","immunityScoreBp(address)":"d524f195","intuitionVault()":"f4cd141f","isBlocked(address)":"fbac3951","minBond()":"831518b7","minRegistrationAssets()":"efbf74e6","owner()":"8da5cb5b","paused()":"5c975abb","registerThreat(address,uint256)":"54b82221","renounceOwnership()":"715018a6","requireCounterTripleExists()":"a23ba185","resolveThreat(address)":"76c7d677","riskScore(address)":"414363e6","setChallengeBondMultiplierBp(uint256)":"fb3b6429","setChallengeWindow(uint256)":"01c1aa0d","setMinBond(uint256)":"6eaae824","setMinRegistrationAssets(uint256)":"e8236a3e","setRequireCounterTripleExists(bool)":"c81ed361","setThresholds(uint256,uint256)":"e3064a77","setTreasury(address)":"f0f44260","setWinnerRewardBp(uint256)":"bfa8b3b9","threats(address)":"6ca944b7","transferOwnership(address)":"f2fde38b","treasury()":"61d027b3","volatilityExtension()":"ffa08464","volatilityExtensionEnabled()":"881a5aa7","volatilityThresholdBp()":"d9b50172","winnerRewardBp()":"9e8b95a9"}}}}}