{"contracts/AdaptiveImmuneFirewall.sol":{"AdaptiveImmuneFirewall":{"abi":[{"inputs":[{"internalType":"address","name":"_intuitionVault","type":"address"}],"stateMutability":"nonpayable","type":"constructor"},{"inputs":[],"name":"DowngradeAttempt","type":"error"},{"inputs":[],"name":"EnforcedPause","type":"error"},{"inputs":[],"name":"ExpectedPause","type":"error"},{"inputs":[],"name":"InvalidThresholds","type":"error"},{"inputs":[{"internalType":"uint256","name":"vaultId","type":"uint256"}],"name":"NotATriple","type":"error"},{"inputs":[{"internalType":"address","name":"owner","type":"address"}],"name":"OwnableInvalidOwner","type":"error"},{"inputs":[{"internalType":"address","name":"account","type":"address"}],"name":"OwnableUnauthorizedAccount","type":"error"},{"inputs":[],"name":"WeakSignal","type":"error"},{"inputs":[],"name":"ZeroAddress","type":"error"},{"inputs":[],"name":"ZeroTripleId","type":"error"},{"anonymous":false,"inputs":[{"indexed":false,"internalType":"address","name":"admin","type":"address"}],"name":"EmergencyPaused","type":"event"},{"anonymous":false,"inputs":[{"indexed":false,"internalType":"address","name":"admin","type":"address"}],"name":"EmergencyUnpaused","type":"event"},{"anonymous":false,"inputs":[{"indexed":true,"internalType":"address","name":"previousOwner","type":"address"},{"indexed":true,"internalType":"address","name":"newOwner","type":"address"}],"name":"OwnershipTransferred","type":"event"},{"anonymous":false,"inputs":[{"indexed":false,"internalType":"address","name":"account","type":"address"}],"name":"Paused","type":"event"},{"anonymous":false,"inputs":[{"indexed":true,"internalType":"address","name":"suspect","type":"address"},{"indexed":true,"internalType":"uint256","name":"tripleId","type":"uint256"},{"indexed":true,"internalType":"address","name":"registrar","type":"address"},{"indexed":false,"internalType":"uint256","name":"timestamp","type":"uint256"}],"name":"ThreatRegistered","type":"event"},{"anonymous":false,"inputs":[{"indexed":true,"internalType":"address","name":"target","type":"address"},{"indexed":false,"internalType":"uint256","name":"tripleId","type":"uint256"},{"indexed":false,"internalType":"uint256","name":"assets","type":"uint256"},{"indexed":false,"internalType":"enum AdaptiveImmuneFirewall.RiskStatus","name":"status","type":"uint8"}],"name":"ThresholdsEvaluated","type":"event"},{"anonymous":false,"inputs":[{"indexed":false,"internalType":"uint256","name":"newWarn","type":"uint256"},{"indexed":false,"internalType":"uint256","name":"newBlock","type":"uint256"}],"name":"ThresholdsUpdated","type":"event"},{"anonymous":false,"inputs":[{"indexed":false,"internalType":"address","name":"account","type":"address"}],"name":"Unpaused","type":"event"},{"inputs":[],"name":"BLOCK_STAKE_THRESHOLD","outputs":[{"internalType":"uint256","name":"","type":"uint256"}],"stateMutability":"view","type":"function"},{"inputs":[],"name":"WARN_STAKE_THRESHOLD","outputs":[{"internalType":"uint256","name":"","type":"uint256"}],"stateMutability":"view","type":"function"},{"inputs":[],"name":"emergencyPause","outputs":[],"stateMutability":"nonpayable","type":"function"},{"inputs":[],"name":"emergencyUnpause","outputs":[],"stateMutability":"nonpayable","type":"function"},{"inputs":[{"internalType":"address","name":"_target","type":"address"}],"name":"getThreatIntel","outputs":[{"internalType":"uint256","name":"tripleId","type":"uint256"},{"internalType":"uint256","name":"registeredAt","type":"uint256"},{"internalType":"address","name":"registrar","type":"address"},{"internalType":"uint256","name":"conviction","type":"uint256"},{"internalType":"uint256","name":"counterConviction","type":"uint256"},{"internalType":"enum AdaptiveImmuneFirewall.RiskStatus","name":"status","type":"uint8"}],"stateMutability":"view","type":"function"},{"inputs":[{"internalType":"address","name":"_target","type":"address"}],"name":"immunityScoreBp","outputs":[{"internalType":"uint256","name":"scoreBp","type":"uint256"}],"stateMutability":"view","type":"function"},{"inputs":[],"name":"intuitionVault","outputs":[{"internalType":"contract IEthMultiVault","name":"","type":"address"}],"stateMutability":"view","type":"function"},{"inputs":[{"internalType":"address","name":"_target","type":"address"}],"name":"isBlocked","outputs":[{"internalType":"bool","name":"","type":"bool"}],"stateMutability":"view","type":"function"},{"inputs":[],"name":"minRegistrationAssets","outputs":[{"internalType":"uint256","name":"","type":"uint256"}],"stateMutability":"view","type":"function"},{"inputs":[],"name":"owner","outputs":[{"internalType":"address","name":"","type":"address"}],"stateMutability":"view","type":"function"},{"inputs":[],"name":"paused","outputs":[{"internalType":"bool","name":"","type":"bool"}],"stateMutability":"view","type":"function"},{"inputs":[{"internalType":"address","name":"_suspect","type":"address"},{"internalType":"uint256","name":"_tripleId","type":"uint256"}],"name":"registerThreat","outputs":[],"stateMutability":"nonpayable","type":"function"},{"inputs":[],"name":"renounceOwnership","outputs":[],"stateMutability":"nonpayable","type":"function"},{"inputs":[{"internalType":"address","name":"_target","type":"address"}],"name":"riskScore","outputs":[{"internalType":"uint256","name":"assets","type":"uint256"},{"internalType":"uint256","name":"shares","type":"uint256"},{"internalType":"enum AdaptiveImmuneFirewall.RiskStatus","name":"status","type":"uint8"},{"internalType":"uint256","name":"tripleId","type":"uint256"}],"stateMutability":"view","type":"function"},{"inputs":[{"internalType":"uint256","name":"_newWarn","type":"uint256"},{"internalType":"uint256","name":"_newBlock","type":"uint256"}],"name":"setThresholds","outputs":[],"stateMutability":"nonpayable","type":"function"},{"inputs":[{"internalType":"address","name":"","type":"address"}],"name":"threats","outputs":[{"internalType":"uint256","name":"tripleId","type":"uint256"},{"internalType":"uint256","name":"registeredAt","type":"uint256"},{"internalType":"address","name":"registrar","type":"address"}],"stateMutability":"view","type":"function"},{"inputs":[{"internalType":"address","name":"newOwner","type":"address"}],"name":"transferOwnership","outputs":[],"stateMutability":"nonpayable","type":"function"}],"evm":{"bytecode":{"linkReferences":{},"object":"6080604052655af3107a400060025566038d7ea4c68000600355662386f26fc1000060045534801561003057600080fd5b50604051610fa3380380610fa383398101604081905261004f9161011b565b338061007557604051631e4fbdf760e01b81526000600482015260240160405180910390fd5b61007e816100cb565b506001600160a01b0381166100a65760405163d92e233d60e01b815260040160405180910390fd5b600180546001600160a01b0319166001600160a01b039290921691909117905561014b565b600080546001600160a01b038381166001600160a01b0319831681178455604051919092169283917f8be0079c531659141344cd1fd0a4f28419497f9722a3daafe3b4186f6b6457e09190a35050565b60006020828403121561012d57600080fd5b81516001600160a01b038116811461014457600080fd5b9392505050565b610e498061015a6000396000f3fe608060405234801561001057600080fd5b506004361061010b5760003560e01c80638da5cb5b116100a2578063efbf74e611610071578063efbf74e61461026a578063f2fde38b14610273578063f4cd141f14610286578063fadef9f814610299578063fbac3951146102a257600080fd5b80638da5cb5b146101fa578063be9472cc1461021f578063d524f19514610244578063e3064a771461025757600080fd5b80635c975abb116100de5780635c975abb146101615780636ca944b71461017f578063715018a6146101db578063734f2a28146101e357600080fd5b8063414363e6146101105780634a4e3bd51461013c57806351858e271461014657806354b822211461014e575b600080fd5b61012361011e366004610c52565b6102b5565b6040516101339493929190610cac565b60405180910390f35b610144610439565b005b61014461047f565b61014461015c366004610cd6565b6104bf565b600054600160a01b900460ff165b6040519015158152602001610133565b6101b761018d366004610c52565b6005602052600090815260409020805460018201546002909201549091906001600160a01b031683565b6040805193845260208401929092526001600160a01b031690820152606001610133565b61014461078b565b6101ec60035481565b604051908152602001610133565b6000546001600160a01b03165b6040516001600160a01b039091168152602001610133565b61023261022d366004610c52565b61079f565b60405161013396959493929190610d00565b6101ec610252366004610c52565b6108b8565b610144610265366004610d43565b6109e4565b6101ec60045481565b610144610281366004610c52565b610a5f565b600154610207906001600160a01b031681565b6101ec60025481565b61016f6102b0366004610c52565b610a9d565b6001600160a01b038116600090815260056020526040812054819081908082036102ea57506000925082915081905080610432565b600154604051620d10bb60e51b815260048101839052600060248201526001600160a01b03909116906301a21760906044016040805180830381865afa158015610338573d6000803e3d6000fd5b505050506040513d601f19601f8201168201806040525081019061035c9190610d65565b9094509250600061036f82600019610d9f565b600154604051620d10bb60e51b8152600481018390526000602482018190529293506001600160a01b03909116906301a21760906044016040805180830381865afa1580156103c2573d6000803e3d6000fd5b505050506040513d601f19601f820116820180604052508101906103e69190610d65565b50905060008682106103f9576000610403565b6104038288610d9f565b90506003548110610417576003945061042e565b6002548110610429576002945061042e565b600194505b5050505b9193509193565b610441610ad1565b610449610afe565b6040513381527ff5cbf596165cc457b2cd92e8d8450827ee314968160a5696402d75766fc52caf906020015b60405180910390a1565b610487610ad1565b61048f610b4e565b6040513381527fb8fad2fa0ed7a383e747c309ef2c4391d7b65592a48893e57ccc1fab7079145690602001610475565b6104c7610b91565b6001600160a01b0382166104ee5760405163d92e233d60e01b815260040160405180910390fd5b8060000361050f5760405163dfa225d560e01b815260040160405180910390fd5b600154604051630fee409760e11b8152600481018390526001600160a01b0390911690631fdc812e90602401602060405180830381865afa158015610558573d6000803e3d6000fd5b505050506040513d601f19601f8201168201806040525081019061057c9190610db8565b6105a157604051635cf3229b60e11b8152600481018290526024015b60405180910390fd5b600154604051620d10bb60e51b815260048101839052600060248201819052916001600160a01b0316906301a21760906044016040805180830381865afa1580156105f0573d6000803e3d6000fd5b505050506040513d601f19601f820116820180604052508101906106149190610d65565b50905060045481101561063a57604051633ff3985360e11b815260040160405180910390fd5b6001600160a01b03831660009081526005602052604090205480156106f257600154604051620d10bb60e51b815260048101839052600060248201819052916001600160a01b0316906301a21760906044016040805180830381865afa1580156106a8573d6000803e3d6000fd5b505050506040513d601f19601f820116820180604052508101906106cc9190610d65565b509050828111156106f05760405163581ec51d60e01b815260040160405180910390fd5b505b60408051606081018252848152426020808301828152338486018181526001600160a01b038b811660008181526005875289902097518855935160018801559051600290960180546001600160a01b031916969091169590951790945593519182529192869290917fdad382abef697d0a1ef2dc0f7c0fe16ceac3ce21de265bfebd29d116e0a7600f910160405180910390a450505050565b610793610ad1565b61079d6000610bbc565b565b6001600160a01b03808216600090815260056020908152604080832081516060810183528154808252600183015494820185905260029092015490951691850182905293919290918190819086820361080d57600080600080600080965096509650965096509650506108af565b6000806108198a6102b5565b5092505091508195506000896000196108329190610d9f565b600154604051620d10bb60e51b815260048101839052600060248201529192506001600160a01b0316906301a21760906044016040805180830381865afa158015610881573d6000803e3d6000fd5b505050506040513d601f19601f820116820180604052508101906108a59190610d65565b5095509093505050505b91939550919395565b6000806000806108c7856102b5565b9295509350909150600090508260038111156108e5576108e5610c74565b036108f65750612710949350505050565b600061090482600019610d9f565b600154604051620d10bb60e51b8152600481018390526000602482018190529293506001600160a01b03909116906301a21760906044016040805180830381865afa158015610957573d6000803e3d6000fd5b505050506040513d601f19601f8201168201806040525081019061097b9190610d65565b509050600085821061098e576000610998565b6109988287610d9f565b9050600060035482116109ab57816109af565b6003545b6003549091506109c182612710610dda565b6109cb9190610df1565b6109d790612710610d9f565b9998505050505050505050565b6109ec610ad1565b6000821180156109fb57508181115b610a1857604051632e83089360e11b815260040160405180910390fd5b6002829055600381905560408051838152602081018390527fd081f5afbf5e2859f2be3d6c573e1cdd6c8fb93b18ec6145427882fe51507b6a910160405180910390a15050565b610a67610ad1565b6001600160a01b038116610a9157604051631e4fbdf760e01b815260006004820152602401610598565b610a9a81610bbc565b50565b600080610aa9836102b5565b50925060039150610ab79050565b816003811115610ac957610ac9610c74565b149392505050565b6000546001600160a01b0316331461079d5760405163118cdaa760e01b8152336004820152602401610598565b610b06610c0c565b6000805460ff60a01b191690557f5db9ee0a495bf2e6ff9c91a7834c1ba4fdd244a5e8aa4e537bd38aeae4b073aa335b6040516001600160a01b039091168152602001610475565b610b56610b91565b6000805460ff60a01b1916600160a01b1790557f62e78cea01bee320cd4e420270b5ea74000d11b0c9f74754ebdbfc544b05a258610b363390565b600054600160a01b900460ff161561079d5760405163d93c066560e01b815260040160405180910390fd5b600080546001600160a01b038381166001600160a01b0319831681178455604051919092169283917f8be0079c531659141344cd1fd0a4f28419497f9722a3daafe3b4186f6b6457e09190a35050565b600054600160a01b900460ff1661079d57604051638dfc202b60e01b815260040160405180910390fd5b80356001600160a01b0381168114610c4d57600080fd5b919050565b600060208284031215610c6457600080fd5b610c6d82610c36565b9392505050565b634e487b7160e01b600052602160045260246000fd5b60048110610ca857634e487b7160e01b600052602160045260246000fd5b9052565b8481526020810184905260808101610cc76040830185610c8a565b82606083015295945050505050565b60008060408385031215610ce957600080fd5b610cf283610c36565b946020939093013593505050565b868152602081018690526001600160a01b0385166040820152606081018490526080810183905260c08101610d3860a0830184610c8a565b979650505050505050565b60008060408385031215610d5657600080fd5b50508035926020909101359150565b60008060408385031215610d7857600080fd5b505080516020909101519092909150565b634e487b7160e01b600052601160045260246000fd5b81810381811115610db257610db2610d89565b92915050565b600060208284031215610dca57600080fd5b81518015158114610c6d57600080fd5b8082028115828204841417610db257610db2610d89565b600082610e0e57634e487b7160e01b600052601260045260246000fd5b50049056fea26469706673582212200e827eaf7aaa3839630e462d31cc5bdf6d980aa81b4750780d67bad003f3cc4864736f6c63430008150033","opcodes":"PUSH1 0x80 PUSH1 0x40 MSTORE PUSH6 0x5AF3107A4000 PUSH1 0x2 SSTORE PUSH7 0x38D7EA4C68000 PUSH1 0x3 SSTORE PUSH7 0x2386F26FC10000 PUSH1 0x4 SSTORE CALLVALUE DUP1 ISZERO PUSH2 0x30 JUMPI PUSH1 0x0 DUP1 REVERT JUMPDEST POP PUSH1 0x40 MLOAD PUSH2 0xFA3 CODESIZE SUB DUP1 PUSH2 0xFA3 DUP4 CODECOPY DUP2 ADD PUSH1 0x40 DUP2 SWAP1 MSTORE PUSH2 0x4F SWAP2 PUSH2 0x11B JUMP JUMPDEST CALLER DUP1 PUSH2 0x75 JUMPI PUSH1 0x40 MLOAD PUSH4 0x1E4FBDF7 PUSH1 0xE0 SHL DUP2 MSTORE PUSH1 0x0 PUSH1 0x4 DUP3 ADD MSTORE PUSH1 0x24 ADD PUSH1 0x40 MLOAD DUP1 SWAP2 SUB SWAP1 REVERT JUMPDEST PUSH2 0x7E DUP2 PUSH2 0xCB JUMP JUMPDEST POP PUSH1 0x1 PUSH1 0x1 PUSH1 0xA0 SHL SUB DUP2 AND PUSH2 0xA6 JUMPI PUSH1 0x40 MLOAD PUSH4 0xD92E233D PUSH1 0xE0 SHL DUP2 MSTORE PUSH1 0x4 ADD PUSH1 0x40 MLOAD DUP1 SWAP2 SUB SWAP1 REVERT JUMPDEST PUSH1 0x1 DUP1 SLOAD PUSH1 0x1 PUSH1 0x1 PUSH1 0xA0 SHL SUB NOT AND PUSH1 0x1 PUSH1 0x1 PUSH1 0xA0 SHL SUB SWAP3 SWAP1 SWAP3 AND SWAP2 SWAP1 SWAP2 OR SWAP1 SSTORE PUSH2 0x14B JUMP JUMPDEST PUSH1 0x0 DUP1 SLOAD PUSH1 0x1 PUSH1 0x1 PUSH1 0xA0 SHL SUB DUP4 DUP2 AND PUSH1 0x1 PUSH1 0x1 PUSH1 0xA0 SHL SUB NOT DUP4 AND DUP2 OR DUP5 SSTORE PUSH1 0x40 MLOAD SWAP2 SWAP1 SWAP3 AND SWAP3 DUP4 SWAP2 PUSH32 0x8BE0079C531659141344CD1FD0A4F28419497F9722A3DAAFE3B4186F6B6457E0 SWAP2 SWAP1 LOG3 POP POP JUMP JUMPDEST PUSH1 0x0 PUSH1 0x20 DUP3 DUP5 SUB SLT ISZERO PUSH2 0x12D JUMPI PUSH1 0x0 DUP1 REVERT JUMPDEST DUP2 MLOAD PUSH1 0x1 PUSH1 0x1 PUSH1 0xA0 SHL SUB DUP2 AND DUP2 EQ PUSH2 0x144 JUMPI PUSH1 0x0 DUP1 REVERT JUMPDEST SWAP4 SWAP3 POP POP POP JUMP JUMPDEST PUSH2 0xE49 DUP1 PUSH2 0x15A PUSH1 0x0 CODECOPY PUSH1 0x0 RETURN INVALID PUSH1 0x80 PUSH1 0x40 MSTORE CALLVALUE DUP1 ISZERO PUSH2 0x10 JUMPI PUSH1 0x0 DUP1 REVERT JUMPDEST POP PUSH1 0x4 CALLDATASIZE LT PUSH2 0x10B JUMPI PUSH1 0x0 CALLDATALOAD PUSH1 0xE0 SHR DUP1 PUSH4 0x8DA5CB5B GT PUSH2 0xA2 JUMPI DUP1 PUSH4 0xEFBF74E6 GT PUSH2 0x71 JUMPI DUP1 PUSH4 0xEFBF74E6 EQ PUSH2 0x26A JUMPI DUP1 PUSH4 0xF2FDE38B EQ PUSH2 0x273 JUMPI DUP1 PUSH4 0xF4CD141F EQ PUSH2 0x286 JUMPI DUP1 PUSH4 0xFADEF9F8 EQ PUSH2 0x299 JUMPI DUP1 PUSH4 0xFBAC3951 EQ PUSH2 0x2A2 JUMPI PUSH1 0x0 DUP1 REVERT JUMPDEST DUP1 PUSH4 0x8DA5CB5B EQ PUSH2 0x1FA JUMPI DUP1 PUSH4 0xBE9472CC EQ PUSH2 0x21F JUMPI DUP1 PUSH4 0xD524F195 EQ PUSH2 0x244 JUMPI DUP1 PUSH4 0xE3064A77 EQ PUSH2 0x257 JUMPI PUSH1 0x0 DUP1 REVERT JUMPDEST DUP1 PUSH4 0x5C975ABB GT PUSH2 0xDE JUMPI DUP1 PUSH4 0x5C975ABB EQ PUSH2 0x161 JUMPI DUP1 PUSH4 0x6CA944B7 EQ PUSH2 0x17F JUMPI DUP1 PUSH4 0x715018A6 EQ PUSH2 0x1DB JUMPI DUP1 PUSH4 0x734F2A28 EQ PUSH2 0x1E3 JUMPI PUSH1 0x0 DUP1 REVERT JUMPDEST DUP1 PUSH4 0x414363E6 EQ PUSH2 0x110 JUMPI DUP1 PUSH4 0x4A4E3BD5 EQ PUSH2 0x13C JUMPI DUP1 PUSH4 0x51858E27 EQ PUSH2 0x146 JUMPI DUP1 PUSH4 0x54B82221 EQ PUSH2 0x14E JUMPI JUMPDEST PUSH1 0x0 DUP1 REVERT JUMPDEST PUSH2 0x123 PUSH2 0x11E CALLDATASIZE PUSH1 0x4 PUSH2 0xC52 JUMP JUMPDEST PUSH2 0x2B5 JUMP JUMPDEST PUSH1 0x40 MLOAD PUSH2 0x133 SWAP5 SWAP4 SWAP3 SWAP2 SWAP1 PUSH2 0xCAC JUMP JUMPDEST PUSH1 0x40 MLOAD DUP1 SWAP2 SUB SWAP1 RETURN JUMPDEST PUSH2 0x144 PUSH2 0x439 JUMP JUMPDEST STOP JUMPDEST PUSH2 0x144 PUSH2 0x47F JUMP JUMPDEST PUSH2 0x144 PUSH2 0x15C CALLDATASIZE PUSH1 0x4 PUSH2 0xCD6 JUMP JUMPDEST PUSH2 0x4BF JUMP JUMPDEST PUSH1 0x0 SLOAD PUSH1 0x1 PUSH1 0xA0 SHL SWAP1 DIV PUSH1 0xFF AND JUMPDEST PUSH1 0x40 MLOAD SWAP1 ISZERO ISZERO DUP2 MSTORE PUSH1 0x20 ADD PUSH2 0x133 JUMP JUMPDEST PUSH2 0x1B7 PUSH2 0x18D CALLDATASIZE PUSH1 0x4 PUSH2 0xC52 JUMP JUMPDEST PUSH1 0x5 PUSH1 0x20 MSTORE PUSH1 0x0 SWAP1 DUP2 MSTORE PUSH1 0x40 SWAP1 KECCAK256 DUP1 SLOAD PUSH1 0x1 DUP3 ADD SLOAD PUSH1 0x2 SWAP1 SWAP3 ADD SLOAD SWAP1 SWAP2 SWAP1 PUSH1 0x1 PUSH1 0x1 PUSH1 0xA0 SHL SUB AND DUP4 JUMP JUMPDEST PUSH1 0x40 DUP1 MLOAD SWAP4 DUP5 MSTORE PUSH1 0x20 DUP5 ADD SWAP3 SWAP1 SWAP3 MSTORE PUSH1 0x1 PUSH1 0x1 PUSH1 0xA0 SHL SUB AND SWAP1 DUP3 ADD MSTORE PUSH1 0x60 ADD PUSH2 0x133 JUMP JUMPDEST PUSH2 0x144 PUSH2 0x78B JUMP JUMPDEST PUSH2 0x1EC PUSH1 0x3 SLOAD DUP2 JUMP JUMPDEST PUSH1 0x40 MLOAD SWAP1 DUP2 MSTORE PUSH1 0x20 ADD PUSH2 0x133 JUMP JUMPDEST PUSH1 0x0 SLOAD PUSH1 0x1 PUSH1 0x1 PUSH1 0xA0 SHL SUB AND JUMPDEST PUSH1 0x40 MLOAD PUSH1 0x1 PUSH1 0x1 PUSH1 0xA0 SHL SUB SWAP1 SWAP2 AND DUP2 MSTORE PUSH1 0x20 ADD PUSH2 0x133 JUMP JUMPDEST PUSH2 0x232 PUSH2 0x22D CALLDATASIZE PUSH1 0x4 PUSH2 0xC52 JUMP JUMPDEST PUSH2 0x79F JUMP JUMPDEST PUSH1 0x40 MLOAD PUSH2 0x133 SWAP7 SWAP6 SWAP5 SWAP4 SWAP3 SWAP2 SWAP1 PUSH2 0xD00 JUMP JUMPDEST PUSH2 0x1EC PUSH2 0x252 CALLDATASIZE PUSH1 0x4 PUSH2 0xC52 JUMP JUMPDEST PUSH2 0x8B8 JUMP JUMPDEST PUSH2 0x144 PUSH2 0x265 CALLDATASIZE PUSH1 0x4 PUSH2 0xD43 JUMP JUMPDEST PUSH2 0x9E4 JUMP JUMPDEST PUSH2 0x1EC PUSH1 0x4 SLOAD DUP2 JUMP JUMPDEST PUSH2 0x144 PUSH2 0x281 CALLDATASIZE PUSH1 0x4 PUSH2 0xC52 JUMP JUMPDEST PUSH2 0xA5F JUMP JUMPDEST PUSH1 0x1 SLOAD PUSH2 0x207 SWAP1 PUSH1 0x1 PUSH1 0x1 PUSH1 0xA0 SHL SUB AND DUP2 JUMP JUMPDEST PUSH2 0x1EC PUSH1 0x2 SLOAD DUP2 JUMP JUMPDEST PUSH2 0x16F PUSH2 0x2B0 CALLDATASIZE PUSH1 0x4 PUSH2 0xC52 JUMP JUMPDEST PUSH2 0xA9D JUMP JUMPDEST PUSH1 0x1 PUSH1 0x1 PUSH1 0xA0 SHL SUB DUP2 AND PUSH1 0x0 SWAP1 DUP2 MSTORE PUSH1 0x5 PUSH1 0x20 MSTORE PUSH1 0x40 DUP2 KECCAK256 SLOAD DUP2 SWAP1 DUP2 SWAP1 DUP1 DUP3 SUB PUSH2 0x2EA JUMPI POP PUSH1 0x0 SWAP3 POP DUP3 SWAP2 POP DUP2 SWAP1 POP DUP1 PUSH2 0x432 JUMP JUMPDEST PUSH1 0x1 SLOAD PUSH1 0x40 MLOAD PUSH3 0xD10BB PUSH1 0xE5 SHL DUP2 MSTORE PUSH1 0x4 DUP2 ADD DUP4 SWAP1 MSTORE PUSH1 0x0 PUSH1 0x24 DUP3 ADD MSTORE PUSH1 0x1 PUSH1 0x1 PUSH1 0xA0 SHL SUB SWAP1 SWAP2 AND SWAP1 PUSH4 0x1A21760 SWAP1 PUSH1 0x44 ADD PUSH1 0x40 DUP1 MLOAD DUP1 DUP4 SUB DUP2 DUP7 GAS STATICCALL ISZERO DUP1 ISZERO PUSH2 0x338 JUMPI RETURNDATASIZE PUSH1 0x0 DUP1 RETURNDATACOPY RETURNDATASIZE PUSH1 0x0 REVERT JUMPDEST POP POP POP POP PUSH1 0x40 MLOAD RETURNDATASIZE PUSH1 0x1F NOT PUSH1 0x1F DUP3 ADD AND DUP3 ADD DUP1 PUSH1 0x40 MSTORE POP DUP2 ADD SWAP1 PUSH2 0x35C SWAP2 SWAP1 PUSH2 0xD65 JUMP JUMPDEST SWAP1 SWAP5 POP SWAP3 POP PUSH1 0x0 PUSH2 0x36F DUP3 PUSH1 0x0 NOT PUSH2 0xD9F JUMP JUMPDEST PUSH1 0x1 SLOAD PUSH1 0x40 MLOAD PUSH3 0xD10BB PUSH1 0xE5 SHL DUP2 MSTORE PUSH1 0x4 DUP2 ADD DUP4 SWAP1 MSTORE PUSH1 0x0 PUSH1 0x24 DUP3 ADD DUP2 SWAP1 MSTORE SWAP3 SWAP4 POP PUSH1 0x1 PUSH1 0x1 PUSH1 0xA0 SHL SUB SWAP1 SWAP2 AND SWAP1 PUSH4 0x1A21760 SWAP1 PUSH1 0x44 ADD PUSH1 0x40 DUP1 MLOAD DUP1 DUP4 SUB DUP2 DUP7 GAS STATICCALL ISZERO DUP1 ISZERO PUSH2 0x3C2 JUMPI RETURNDATASIZE PUSH1 0x0 DUP1 RETURNDATACOPY RETURNDATASIZE PUSH1 0x0 REVERT JUMPDEST POP POP POP POP PUSH1 0x40 MLOAD RETURNDATASIZE PUSH1 0x1F NOT PUSH1 0x1F DUP3 ADD AND DUP3 ADD DUP1 PUSH1 0x40 MSTORE POP DUP2 ADD SWAP1 PUSH2 0x3E6 SWAP2 SWAP1 PUSH2 0xD65 JUMP JUMPDEST POP SWAP1 POP PUSH1 0x0 DUP7 DUP3 LT PUSH2 0x3F9 JUMPI PUSH1 0x0 PUSH2 0x403 JUMP JUMPDEST PUSH2 0x403 DUP3 DUP9 PUSH2 0xD9F JUMP JUMPDEST SWAP1 POP PUSH1 0x3 SLOAD DUP2 LT PUSH2 0x417 JUMPI PUSH1 0x3 SWAP5 POP PUSH2 0x42E JUMP JUMPDEST PUSH1 0x2 SLOAD DUP2 LT PUSH2 0x429 JUMPI PUSH1 0x2 SWAP5 POP PUSH2 0x42E JUMP JUMPDEST PUSH1 0x1 SWAP5 POP JUMPDEST POP POP POP JUMPDEST SWAP2 SWAP4 POP SWAP2 SWAP4 JUMP JUMPDEST PUSH2 0x441 PUSH2 0xAD1 JUMP JUMPDEST PUSH2 0x449 PUSH2 0xAFE JUMP JUMPDEST PUSH1 0x40 MLOAD CALLER DUP2 MSTORE PUSH32 0xF5CBF596165CC457B2CD92E8D8450827EE314968160A5696402D75766FC52CAF SWAP1 PUSH1 0x20 ADD JUMPDEST PUSH1 0x40 MLOAD DUP1 SWAP2 SUB SWAP1 LOG1 JUMP JUMPDEST PUSH2 0x487 PUSH2 0xAD1 JUMP JUMPDEST PUSH2 0x48F PUSH2 0xB4E JUMP JUMPDEST PUSH1 0x40 MLOAD CALLER DUP2 MSTORE PUSH32 0xB8FAD2FA0ED7A383E747C309EF2C4391D7B65592A48893E57CCC1FAB70791456 SWAP1 PUSH1 0x20 ADD PUSH2 0x475 JUMP JUMPDEST PUSH2 0x4C7 PUSH2 0xB91 JUMP JUMPDEST PUSH1 0x1 PUSH1 0x1 PUSH1 0xA0 SHL SUB DUP3 AND PUSH2 0x4EE JUMPI PUSH1 0x40 MLOAD PUSH4 0xD92E233D PUSH1 0xE0 SHL DUP2 MSTORE PUSH1 0x4 ADD PUSH1 0x40 MLOAD DUP1 SWAP2 SUB SWAP1 REVERT JUMPDEST DUP1 PUSH1 0x0 SUB PUSH2 0x50F JUMPI PUSH1 0x40 MLOAD PUSH4 0xDFA225D5 PUSH1 0xE0 SHL DUP2 MSTORE PUSH1 0x4 ADD PUSH1 0x40 MLOAD DUP1 SWAP2 SUB SWAP1 REVERT JUMPDEST PUSH1 0x1 SLOAD PUSH1 0x40 MLOAD PUSH4 0xFEE4097 PUSH1 0xE1 SHL DUP2 MSTORE PUSH1 0x4 DUP2 ADD DUP4 SWAP1 MSTORE PUSH1 0x1 PUSH1 0x1 PUSH1 0xA0 SHL SUB SWAP1 SWAP2 AND SWAP1 PUSH4 0x1FDC812E SWAP1 PUSH1 0x24 ADD PUSH1 0x20 PUSH1 0x40 MLOAD DUP1 DUP4 SUB DUP2 DUP7 GAS STATICCALL ISZERO DUP1 ISZERO PUSH2 0x558 JUMPI RETURNDATASIZE PUSH1 0x0 DUP1 RETURNDATACOPY RETURNDATASIZE PUSH1 0x0 REVERT JUMPDEST POP POP POP POP PUSH1 0x40 MLOAD RETURNDATASIZE PUSH1 0x1F NOT PUSH1 0x1F DUP3 ADD AND DUP3 ADD DUP1 PUSH1 0x40 MSTORE POP DUP2 ADD SWAP1 PUSH2 0x57C SWAP2 SWAP1 PUSH2 0xDB8 JUMP JUMPDEST PUSH2 0x5A1 JUMPI PUSH1 0x40 MLOAD PUSH4 0x5CF3229B PUSH1 0xE1 SHL DUP2 MSTORE PUSH1 0x4 DUP2 ADD DUP3 SWAP1 MSTORE PUSH1 0x24 ADD JUMPDEST PUSH1 0x40 MLOAD DUP1 SWAP2 SUB SWAP1 REVERT JUMPDEST PUSH1 0x1 SLOAD PUSH1 0x40 MLOAD PUSH3 0xD10BB PUSH1 0xE5 SHL DUP2 MSTORE PUSH1 0x4 DUP2 ADD DUP4 SWAP1 MSTORE PUSH1 0x0 PUSH1 0x24 DUP3 ADD DUP2 SWAP1 MSTORE SWAP2 PUSH1 0x1 PUSH1 0x1 PUSH1 0xA0 SHL SUB AND SWAP1 PUSH4 0x1A21760 SWAP1 PUSH1 0x44 ADD PUSH1 0x40 DUP1 MLOAD DUP1 DUP4 SUB DUP2 DUP7 GAS STATICCALL ISZERO DUP1 ISZERO PUSH2 0x5F0 JUMPI RETURNDATASIZE PUSH1 0x0 DUP1 RETURNDATACOPY RETURNDATASIZE PUSH1 0x0 REVERT JUMPDEST POP POP POP POP PUSH1 0x40 MLOAD RETURNDATASIZE PUSH1 0x1F NOT PUSH1 0x1F DUP3 ADD AND DUP3 ADD DUP1 PUSH1 0x40 MSTORE POP DUP2 ADD SWAP1 PUSH2 0x614 SWAP2 SWAP1 PUSH2 0xD65 JUMP JUMPDEST POP SWAP1 POP PUSH1 0x4 SLOAD DUP2 LT ISZERO PUSH2 0x63A JUMPI PUSH1 0x40 MLOAD PUSH4 0x3FF39853 PUSH1 0xE1 SHL DUP2 MSTORE PUSH1 0x4 ADD PUSH1 0x40 MLOAD DUP1 SWAP2 SUB SWAP1 REVERT JUMPDEST PUSH1 0x1 PUSH1 0x1 PUSH1 0xA0 SHL SUB DUP4 AND PUSH1 0x0 SWAP1 DUP2 MSTORE PUSH1 0x5 PUSH1 0x20 MSTORE PUSH1 0x40 SWAP1 KECCAK256 SLOAD DUP1 ISZERO PUSH2 0x6F2 JUMPI PUSH1 0x1 SLOAD PUSH1 0x40 MLOAD PUSH3 0xD10BB PUSH1 0xE5 SHL DUP2 MSTORE PUSH1 0x4 DUP2 ADD DUP4 SWAP1 MSTORE PUSH1 0x0 PUSH1 0x24 DUP3 ADD DUP2 SWAP1 MSTORE SWAP2 PUSH1 0x1 PUSH1 0x1 PUSH1 0xA0 SHL SUB AND SWAP1 PUSH4 0x1A21760 SWAP1 PUSH1 0x44 ADD PUSH1 0x40 DUP1 MLOAD DUP1 DUP4 SUB DUP2 DUP7 GAS STATICCALL ISZERO DUP1 ISZERO PUSH2 0x6A8 JUMPI RETURNDATASIZE PUSH1 0x0 DUP1 RETURNDATACOPY RETURNDATASIZE PUSH1 0x0 REVERT JUMPDEST POP POP POP POP PUSH1 0x40 MLOAD RETURNDATASIZE PUSH1 0x1F NOT PUSH1 0x1F DUP3 ADD AND DUP3 ADD DUP1 PUSH1 0x40 MSTORE POP DUP2 ADD SWAP1 PUSH2 0x6CC SWAP2 SWAP1 PUSH2 0xD65 JUMP JUMPDEST POP SWAP1 POP DUP3 DUP2 GT ISZERO PUSH2 0x6F0 JUMPI PUSH1 0x40 MLOAD PUSH4 0x581EC51D PUSH1 0xE0 SHL DUP2 MSTORE PUSH1 0x4 ADD PUSH1 0x40 MLOAD DUP1 SWAP2 SUB SWAP1 REVERT JUMPDEST POP JUMPDEST PUSH1 0x40 DUP1 MLOAD PUSH1 0x60 DUP2 ADD DUP3 MSTORE DUP5 DUP2 MSTORE TIMESTAMP PUSH1 0x20 DUP1 DUP4 ADD DUP3 DUP2 MSTORE CALLER DUP5 DUP7 ADD DUP2 DUP2 MSTORE PUSH1 0x1 PUSH1 0x1 PUSH1 0xA0 SHL SUB DUP12 DUP2 AND PUSH1 0x0 DUP2 DUP2 MSTORE PUSH1 0x5 DUP8 MSTORE DUP10 SWAP1 KECCAK256 SWAP8 MLOAD DUP9 SSTORE SWAP4 MLOAD PUSH1 0x1 DUP9 ADD SSTORE SWAP1 MLOAD PUSH1 0x2 SWAP1 SWAP7 ADD DUP1 SLOAD PUSH1 0x1 PUSH1 0x1 PUSH1 0xA0 SHL SUB NOT AND SWAP7 SWAP1 SWAP2 AND SWAP6 SWAP1 SWAP6 OR SWAP1 SWAP5 SSTORE SWAP4 MLOAD SWAP2 DUP3 MSTORE SWAP2 SWAP3 DUP7 SWAP3 SWAP1 SWAP2 PUSH32 0xDAD382ABEF697D0A1EF2DC0F7C0FE16CEAC3CE21DE265BFEBD29D116E0A7600F SWAP2 ADD PUSH1 0x40 MLOAD DUP1 SWAP2 SUB SWAP1 LOG4 POP POP POP POP JUMP JUMPDEST PUSH2 0x793 PUSH2 0xAD1 JUMP JUMPDEST PUSH2 0x79D PUSH1 0x0 PUSH2 0xBBC JUMP JUMPDEST JUMP JUMPDEST PUSH1 0x1 PUSH1 0x1 PUSH1 0xA0 SHL SUB DUP1 DUP3 AND PUSH1 0x0 SWAP1 DUP2 MSTORE PUSH1 0x5 PUSH1 0x20 SWAP1 DUP2 MSTORE PUSH1 0x40 DUP1 DUP4 KECCAK256 DUP2 MLOAD PUSH1 0x60 DUP2 ADD DUP4 MSTORE DUP2 SLOAD DUP1 DUP3 MSTORE PUSH1 0x1 DUP4 ADD SLOAD SWAP5 DUP3 ADD DUP6 SWAP1 MSTORE PUSH1 0x2 SWAP1 SWAP3 ADD SLOAD SWAP1 SWAP6 AND SWAP2 DUP6 ADD DUP3 SWAP1 MSTORE SWAP4 SWAP2 SWAP3 SWAP1 SWAP2 DUP2 SWAP1 DUP2 SWAP1 DUP7 DUP3 SUB PUSH2 0x80D JUMPI PUSH1 0x0 DUP1 PUSH1 0x0 DUP1 PUSH1 0x0 DUP1 SWAP7 POP SWAP7 POP SWAP7 POP SWAP7 POP SWAP7 POP SWAP7 POP POP PUSH2 0x8AF JUMP JUMPDEST PUSH1 0x0 DUP1 PUSH2 0x819 DUP11 PUSH2 0x2B5 JUMP JUMPDEST POP SWAP3 POP POP SWAP2 POP DUP2 SWAP6 POP PUSH1 0x0 DUP10 PUSH1 0x0 NOT PUSH2 0x832 SWAP2 SWAP1 PUSH2 0xD9F JUMP JUMPDEST PUSH1 0x1 SLOAD PUSH1 0x40 MLOAD PUSH3 0xD10BB PUSH1 0xE5 SHL DUP2 MSTORE PUSH1 0x4 DUP2 ADD DUP4 SWAP1 MSTORE PUSH1 0x0 PUSH1 0x24 DUP3 ADD MSTORE SWAP2 SWAP3 POP PUSH1 0x1 PUSH1 0x1 PUSH1 0xA0 SHL SUB AND SWAP1 PUSH4 0x1A21760 SWAP1 PUSH1 0x44 ADD PUSH1 0x40 DUP1 MLOAD DUP1 DUP4 SUB DUP2 DUP7 GAS STATICCALL ISZERO DUP1 ISZERO PUSH2 0x881 JUMPI RETURNDATASIZE PUSH1 0x0 DUP1 RETURNDATACOPY RETURNDATASIZE PUSH1 0x0 REVERT JUMPDEST POP POP POP POP PUSH1 0x40 MLOAD RETURNDATASIZE PUSH1 0x1F NOT PUSH1 0x1F DUP3 ADD AND DUP3 ADD DUP1 PUSH1 0x40 MSTORE POP DUP2 ADD SWAP1 PUSH2 0x8A5 SWAP2 SWAP1 PUSH2 0xD65 JUMP JUMPDEST POP SWAP6 POP SWAP1 SWAP4 POP POP POP POP JUMPDEST SWAP2 SWAP4 SWAP6 POP SWAP2 SWAP4 SWAP6 JUMP JUMPDEST PUSH1 0x0 DUP1 PUSH1 0x0 DUP1 PUSH2 0x8C7 DUP6 PUSH2 0x2B5 JUMP JUMPDEST SWAP3 SWAP6 POP SWAP4 POP SWAP1 SWAP2 POP PUSH1 0x0 SWAP1 POP DUP3 PUSH1 0x3 DUP2 GT ISZERO PUSH2 0x8E5 JUMPI PUSH2 0x8E5 PUSH2 0xC74 JUMP JUMPDEST SUB PUSH2 0x8F6 JUMPI POP PUSH2 0x2710 SWAP5 SWAP4 POP POP POP POP JUMP JUMPDEST PUSH1 0x0 PUSH2 0x904 DUP3 PUSH1 0x0 NOT PUSH2 0xD9F JUMP JUMPDEST PUSH1 0x1 SLOAD PUSH1 0x40 MLOAD PUSH3 0xD10BB PUSH1 0xE5 SHL DUP2 MSTORE PUSH1 0x4 DUP2 ADD DUP4 SWAP1 MSTORE PUSH1 0x0 PUSH1 0x24 DUP3 ADD DUP2 SWAP1 MSTORE SWAP3 SWAP4 POP PUSH1 0x1 PUSH1 0x1 PUSH1 0xA0 SHL SUB SWAP1 SWAP2 AND SWAP1 PUSH4 0x1A21760 SWAP1 PUSH1 0x44 ADD PUSH1 0x40 DUP1 MLOAD DUP1 DUP4 SUB DUP2 DUP7 GAS STATICCALL ISZERO DUP1 ISZERO PUSH2 0x957 JUMPI RETURNDATASIZE PUSH1 0x0 DUP1 RETURNDATACOPY RETURNDATASIZE PUSH1 0x0 REVERT JUMPDEST POP POP POP POP PUSH1 0x40 MLOAD RETURNDATASIZE PUSH1 0x1F NOT PUSH1 0x1F DUP3 ADD AND DUP3 ADD DUP1 PUSH1 0x40 MSTORE POP DUP2 ADD SWAP1 PUSH2 0x97B SWAP2 SWAP1 PUSH2 0xD65 JUMP JUMPDEST POP SWAP1 POP PUSH1 0x0 DUP6 DUP3 LT PUSH2 0x98E JUMPI PUSH1 0x0 PUSH2 0x998 JUMP JUMPDEST PUSH2 0x998 DUP3 DUP8 PUSH2 0xD9F JUMP JUMPDEST SWAP1 POP PUSH1 0x0 PUSH1 0x3 SLOAD DUP3 GT PUSH2 0x9AB JUMPI DUP2 PUSH2 0x9AF JUMP JUMPDEST PUSH1 0x3 SLOAD JUMPDEST PUSH1 0x3 SLOAD SWAP1 SWAP2 POP PUSH2 0x9C1 DUP3 PUSH2 0x2710 PUSH2 0xDDA JUMP JUMPDEST PUSH2 0x9CB SWAP2 SWAP1 PUSH2 0xDF1 JUMP JUMPDEST PUSH2 0x9D7 SWAP1 PUSH2 0x2710 PUSH2 0xD9F JUMP JUMPDEST SWAP10 SWAP9 POP POP POP POP POP POP POP POP POP JUMP JUMPDEST PUSH2 0x9EC PUSH2 0xAD1 JUMP JUMPDEST PUSH1 0x0 DUP3 GT DUP1 ISZERO PUSH2 0x9FB JUMPI POP DUP2 DUP2 GT JUMPDEST PUSH2 0xA18 JUMPI PUSH1 0x40 MLOAD PUSH4 0x2E830893 PUSH1 0xE1 SHL DUP2 MSTORE PUSH1 0x4 ADD PUSH1 0x40 MLOAD DUP1 SWAP2 SUB SWAP1 REVERT JUMPDEST PUSH1 0x2 DUP3 SWAP1 SSTORE PUSH1 0x3 DUP2 SWAP1 SSTORE PUSH1 0x40 DUP1 MLOAD DUP4 DUP2 MSTORE PUSH1 0x20 DUP2 ADD DUP4 SWAP1 MSTORE PUSH32 0xD081F5AFBF5E2859F2BE3D6C573E1CDD6C8FB93B18EC6145427882FE51507B6A SWAP2 ADD PUSH1 0x40 MLOAD DUP1 SWAP2 SUB SWAP1 LOG1 POP POP JUMP JUMPDEST PUSH2 0xA67 PUSH2 0xAD1 JUMP JUMPDEST PUSH1 0x1 PUSH1 0x1 PUSH1 0xA0 SHL SUB DUP2 AND PUSH2 0xA91 JUMPI PUSH1 0x40 MLOAD PUSH4 0x1E4FBDF7 PUSH1 0xE0 SHL DUP2 MSTORE PUSH1 0x0 PUSH1 0x4 DUP3 ADD MSTORE PUSH1 0x24 ADD PUSH2 0x598 JUMP JUMPDEST PUSH2 0xA9A DUP2 PUSH2 0xBBC JUMP JUMPDEST POP JUMP JUMPDEST PUSH1 0x0 DUP1 PUSH2 0xAA9 DUP4 PUSH2 0x2B5 JUMP JUMPDEST POP SWAP3 POP PUSH1 0x3 SWAP2 POP PUSH2 0xAB7 SWAP1 POP JUMP JUMPDEST DUP2 PUSH1 0x3 DUP2 GT ISZERO PUSH2 0xAC9 JUMPI PUSH2 0xAC9 PUSH2 0xC74 JUMP JUMPDEST EQ SWAP4 SWAP3 POP POP POP JUMP JUMPDEST PUSH1 0x0 SLOAD PUSH1 0x1 PUSH1 0x1 PUSH1 0xA0 SHL SUB AND CALLER EQ PUSH2 0x79D JUMPI PUSH1 0x40 MLOAD PUSH4 0x118CDAA7 PUSH1 0xE0 SHL DUP2 MSTORE CALLER PUSH1 0x4 DUP3 ADD MSTORE PUSH1 0x24 ADD PUSH2 0x598 JUMP JUMPDEST PUSH2 0xB06 PUSH2 0xC0C JUMP JUMPDEST PUSH1 0x0 DUP1 SLOAD PUSH1 0xFF PUSH1 0xA0 SHL NOT AND SWAP1 SSTORE PUSH32 0x5DB9EE0A495BF2E6FF9C91A7834C1BA4FDD244A5E8AA4E537BD38AEAE4B073AA CALLER JUMPDEST PUSH1 0x40 MLOAD PUSH1 0x1 PUSH1 0x1 PUSH1 0xA0 SHL SUB SWAP1 SWAP2 AND DUP2 MSTORE PUSH1 0x20 ADD PUSH2 0x475 JUMP JUMPDEST PUSH2 0xB56 PUSH2 0xB91 JUMP JUMPDEST PUSH1 0x0 DUP1 SLOAD PUSH1 0xFF PUSH1 0xA0 SHL NOT AND PUSH1 0x1 PUSH1 0xA0 SHL OR SWAP1 SSTORE PUSH32 0x62E78CEA01BEE320CD4E420270B5EA74000D11B0C9F74754EBDBFC544B05A258 PUSH2 0xB36 CALLER SWAP1 JUMP JUMPDEST PUSH1 0x0 SLOAD PUSH1 0x1 PUSH1 0xA0 SHL SWAP1 DIV PUSH1 0xFF AND ISZERO PUSH2 0x79D JUMPI PUSH1 0x40 MLOAD PUSH4 0xD93C0665 PUSH1 0xE0 SHL DUP2 MSTORE PUSH1 0x4 ADD PUSH1 0x40 MLOAD DUP1 SWAP2 SUB SWAP1 REVERT JUMPDEST PUSH1 0x0 DUP1 SLOAD PUSH1 0x1 PUSH1 0x1 PUSH1 0xA0 SHL SUB DUP4 DUP2 AND PUSH1 0x1 PUSH1 0x1 PUSH1 0xA0 SHL SUB NOT DUP4 AND DUP2 OR DUP5 SSTORE PUSH1 0x40 MLOAD SWAP2 SWAP1 SWAP3 AND SWAP3 DUP4 SWAP2 PUSH32 0x8BE0079C531659141344CD1FD0A4F28419497F9722A3DAAFE3B4186F6B6457E0 SWAP2 SWAP1 LOG3 POP POP JUMP JUMPDEST PUSH1 0x0 SLOAD PUSH1 0x1 PUSH1 0xA0 SHL SWAP1 DIV PUSH1 0xFF AND PUSH2 0x79D JUMPI PUSH1 0x40 MLOAD PUSH4 0x8DFC202B PUSH1 0xE0 SHL DUP2 MSTORE PUSH1 0x4 ADD PUSH1 0x40 MLOAD DUP1 SWAP2 SUB SWAP1 REVERT JUMPDEST DUP1 CALLDATALOAD PUSH1 0x1 PUSH1 0x1 PUSH1 0xA0 SHL SUB DUP2 AND DUP2 EQ PUSH2 0xC4D JUMPI PUSH1 0x0 DUP1 REVERT JUMPDEST SWAP2 SWAP1 POP JUMP JUMPDEST PUSH1 0x0 PUSH1 0x20 DUP3 DUP5 SUB SLT ISZERO PUSH2 0xC64 JUMPI PUSH1 0x0 DUP1 REVERT JUMPDEST PUSH2 0xC6D DUP3 PUSH2 0xC36 JUMP JUMPDEST SWAP4 SWAP3 POP POP POP JUMP JUMPDEST PUSH4 0x4E487B71 PUSH1 0xE0 SHL PUSH1 0x0 MSTORE PUSH1 0x21 PUSH1 0x4 MSTORE PUSH1 0x24 PUSH1 0x0 REVERT JUMPDEST PUSH1 0x4 DUP2 LT PUSH2 0xCA8 JUMPI PUSH4 0x4E487B71 PUSH1 0xE0 SHL PUSH1 0x0 MSTORE PUSH1 0x21 PUSH1 0x4 MSTORE PUSH1 0x24 PUSH1 0x0 REVERT JUMPDEST SWAP1 MSTORE JUMP JUMPDEST DUP5 DUP2 MSTORE PUSH1 0x20 DUP2 ADD DUP5 SWAP1 MSTORE PUSH1 0x80 DUP2 ADD PUSH2 0xCC7 PUSH1 0x40 DUP4 ADD DUP6 PUSH2 0xC8A JUMP JUMPDEST DUP3 PUSH1 0x60 DUP4 ADD MSTORE SWAP6 SWAP5 POP POP POP POP POP JUMP JUMPDEST PUSH1 0x0 DUP1 PUSH1 0x40 DUP4 DUP6 SUB SLT ISZERO PUSH2 0xCE9 JUMPI PUSH1 0x0 DUP1 REVERT JUMPDEST PUSH2 0xCF2 DUP4 PUSH2 0xC36 JUMP JUMPDEST SWAP5 PUSH1 0x20 SWAP4 SWAP1 SWAP4 ADD CALLDATALOAD SWAP4 POP POP POP JUMP JUMPDEST DUP7 DUP2 MSTORE PUSH1 0x20 DUP2 ADD DUP7 SWAP1 MSTORE PUSH1 0x1 PUSH1 0x1 PUSH1 0xA0 SHL SUB DUP6 AND PUSH1 0x40 DUP3 ADD MSTORE PUSH1 0x60 DUP2 ADD DUP5 SWAP1 MSTORE PUSH1 0x80 DUP2 ADD DUP4 SWAP1 MSTORE PUSH1 0xC0 DUP2 ADD PUSH2 0xD38 PUSH1 0xA0 DUP4 ADD DUP5 PUSH2 0xC8A JUMP JUMPDEST SWAP8 SWAP7 POP POP POP POP POP POP POP JUMP JUMPDEST PUSH1 0x0 DUP1 PUSH1 0x40 DUP4 DUP6 SUB SLT ISZERO PUSH2 0xD56 JUMPI PUSH1 0x0 DUP1 REVERT JUMPDEST POP POP DUP1 CALLDATALOAD SWAP3 PUSH1 0x20 SWAP1 SWAP2 ADD CALLDATALOAD SWAP2 POP JUMP JUMPDEST PUSH1 0x0 DUP1 PUSH1 0x40 DUP4 DUP6 SUB SLT ISZERO PUSH2 0xD78 JUMPI PUSH1 0x0 DUP1 REVERT JUMPDEST POP POP DUP1 MLOAD PUSH1 0x20 SWAP1 SWAP2 ADD MLOAD SWAP1 SWAP3 SWAP1 SWAP2 POP JUMP JUMPDEST PUSH4 0x4E487B71 PUSH1 0xE0 SHL PUSH1 0x0 MSTORE PUSH1 0x11 PUSH1 0x4 MSTORE PUSH1 0x24 PUSH1 0x0 REVERT JUMPDEST DUP2 DUP2 SUB DUP2 DUP2 GT ISZERO PUSH2 0xDB2 JUMPI PUSH2 0xDB2 PUSH2 0xD89 JUMP JUMPDEST SWAP3 SWAP2 POP POP JUMP JUMPDEST PUSH1 0x0 PUSH1 0x20 DUP3 DUP5 SUB SLT ISZERO PUSH2 0xDCA JUMPI PUSH1 0x0 DUP1 REVERT JUMPDEST DUP2 MLOAD DUP1 ISZERO ISZERO DUP2 EQ PUSH2 0xC6D JUMPI PUSH1 0x0 DUP1 REVERT JUMPDEST DUP1 DUP3 MUL DUP2 ISZERO DUP3 DUP3 DIV DUP5 EQ OR PUSH2 0xDB2 JUMPI PUSH2 0xDB2 PUSH2 0xD89 JUMP JUMPDEST PUSH1 0x0 DUP3 PUSH2 0xE0E JUMPI PUSH4 0x4E487B71 PUSH1 0xE0 SHL PUSH1 0x0 MSTORE PUSH1 0x12 PUSH1 0x4 MSTORE PUSH1 0x24 PUSH1 0x0 REVERT JUMPDEST POP DIV SWAP1 JUMP INVALID LOG2 PUSH5 0x6970667358 0x22 SLT KECCAK256 0xE DUP3 PUSH31 0xAF7AAA3839630E462D31CC5BDF6D980AA81B4750780D67BAD003F3CC486473 PUSH16 0x6C634300081500330000000000000000 "},"methodIdentifiers":{"BLOCK_STAKE_THRESHOLD()":"734f2a28","WARN_STAKE_THRESHOLD()":"fadef9f8","emergencyPause()":"51858e27","emergencyUnpause()":"4a4e3bd5","getThreatIntel(address)":"be9472cc","immunityScoreBp(address)":"d524f195","intuitionVault()":"f4cd141f","isBlocked(address)":"fbac3951","minRegistrationAssets()":"efbf74e6","owner()":"8da5cb5b","paused()":"5c975abb","registerThreat(address,uint256)":"54b82221","renounceOwnership()":"715018a6","riskScore(address)":"414363e6","setThresholds(uint256,uint256)":"e3064a77","threats(address)":"6ca944b7","transferOwnership(address)":"f2fde38b"}}}}}