{"contracts/MockEthMultiVault.sol":{"MockEthMultiVault":{"abi":[{"inputs":[{"internalType":"uint256","name":"","type":"uint256"}],"name":"getTripleAtoms","outputs":[{"internalType":"uint256","name":"","type":"uint256"},{"internalType":"uint256","name":"","type":"uint256"},{"internalType":"uint256","name":"","type":"uint256"}],"stateMutability":"pure","type":"function"},{"inputs":[{"internalType":"uint256","name":"vaultId","type":"uint256"},{"internalType":"address","name":"","type":"address"}],"name":"getVaultStateForUser","outputs":[{"internalType":"uint256","name":"","type":"uint256"},{"internalType":"uint256","name":"","type":"uint256"}],"stateMutability":"view","type":"function"},{"inputs":[{"internalType":"uint256","name":"id","type":"uint256"}],"name":"isTripleId","outputs":[{"internalType":"bool","name":"","type":"bool"}],"stateMutability":"view","type":"function"},{"inputs":[{"internalType":"uint256","name":"vaultId","type":"uint256"},{"internalType":"bool","name":"value","type":"bool"}],"name":"setIsTriple","outputs":[],"stateMutability":"nonpayable","type":"function"},{"inputs":[{"internalType":"uint256","name":"vaultId","type":"uint256"},{"internalType":"uint256","name":"assets","type":"uint256"},{"internalType":"uint256","name":"shares","type":"uint256"}],"name":"setVault","outputs":[],"stateMutability":"nonpayable","type":"function"},{"inputs":[{"internalType":"uint256","name":"vaultId","type":"uint256"}],"name":"vaults","outputs":[{"internalType":"uint256","name":"totalAssets","type":"uint256"},{"internalType":"uint256","name":"totalShares","type":"uint256"}],"stateMutability":"view","type":"function"}],"evm":{"bytecode":{"linkReferences":{},"object":"608060405234801561001057600080fd5b50610342806100206000396000f3fe608060405234801561001057600080fd5b50600436106100625760003560e01c80630cde801b1461006757806366e34a33146100a1578063876f5da4146100c457806389065256146100f45780638c64ea4a14610146578063d29442b914610181575b600080fd5b610081610075366004610218565b50600190600290600390565b604080519384526020840192909252908201526060015b60405180910390f35b6100b46100af366004610218565b6101bc565b6040519015158152602001610098565b6100f26100d2366004610231565b600091825260016020526040909120805460ff1916911515919091179055565b005b610131610102366004610266565b506000908152602081815260409182902082518084019093528054808452600190910154929091018290529091565b60408051928352602083019190915201610098565b610131610154366004610218565b60009081526020818152604091829020825180840190935280548084526001909101549290910182905291565b6100f261018f366004610297565b60408051808201825292835260208084019283526000948552849052909220905181559051600190910155565b6000806101cc60026000196102c3565b83119050806101ec5760008381526001602052604090205460ff16610211565b600160006101fc856000196102e5565b815260208101919091526040016000205460ff165b9392505050565b60006020828403121561022a57600080fd5b5035919050565b6000806040838503121561024457600080fd5b823591506020830135801515811461025b57600080fd5b809150509250929050565b6000806040838503121561027957600080fd5b8235915060208301356001600160a01b038116811461025b57600080fd5b6000806000606084860312156102ac57600080fd5b505081359360208301359350604090920135919050565b6000826102e057634e487b7160e01b600052601260045260246000fd5b500490565b8181038181111561030657634e487b7160e01b600052601160045260246000fd5b9291505056fea2646970667358221220b61363d4b28278936c3d40dd13a13a65db7ae94057f0d6d2a70d3343d7b3bed964736f6c63430008150033","opcodes":"PUSH1 0x80 PUSH1 0x40 MSTORE CALLVALUE DUP1 ISZERO PUSH2 0x10 JUMPI PUSH1 0x0 DUP1 REVERT JUMPDEST POP PUSH2 0x342 DUP1 PUSH2 0x20 PUSH1 0x0 CODECOPY PUSH1 0x0 RETURN INVALID PUSH1 0x80 PUSH1 0x40 MSTORE CALLVALUE DUP1 ISZERO PUSH2 0x10 JUMPI PUSH1 0x0 DUP1 REVERT JUMPDEST POP PUSH1 0x4 CALLDATASIZE LT PUSH2 0x62 JUMPI PUSH1 0x0 CALLDATALOAD PUSH1 0xE0 SHR DUP1 PUSH4 0xCDE801B EQ PUSH2 0x67 JUMPI DUP1 PUSH4 0x66E34A33 EQ PUSH2 0xA1 JUMPI DUP1 PUSH4 0x876F5DA4 EQ PUSH2 0xC4 JUMPI DUP1 PUSH4 0x89065256 EQ PUSH2 0xF4 JUMPI DUP1 PUSH4 0x8C64EA4A EQ PUSH2 0x146 JUMPI DUP1 PUSH4 0xD29442B9 EQ PUSH2 0x181 JUMPI JUMPDEST PUSH1 0x0 DUP1 REVERT JUMPDEST PUSH2 0x81 PUSH2 0x75 CALLDATASIZE PUSH1 0x4 PUSH2 0x218 JUMP JUMPDEST POP PUSH1 0x1 SWAP1 PUSH1 0x2 SWAP1 PUSH1 0x3 SWAP1 JUMP JUMPDEST PUSH1 0x40 DUP1 MLOAD SWAP4 DUP5 MSTORE PUSH1 0x20 DUP5 ADD SWAP3 SWAP1 SWAP3 MSTORE SWAP1 DUP3 ADD MSTORE PUSH1 0x60 ADD JUMPDEST PUSH1 0x40 MLOAD DUP1 SWAP2 SUB SWAP1 RETURN JUMPDEST PUSH2 0xB4 PUSH2 0xAF CALLDATASIZE PUSH1 0x4 PUSH2 0x218 JUMP JUMPDEST PUSH2 0x1BC JUMP JUMPDEST PUSH1 0x40 MLOAD SWAP1 ISZERO ISZERO DUP2 MSTORE PUSH1 0x20 ADD PUSH2 0x98 JUMP JUMPDEST PUSH2 0xF2 PUSH2 0xD2 CALLDATASIZE PUSH1 0x4 PUSH2 0x231 JUMP JUMPDEST PUSH1 0x0 SWAP2 DUP3 MSTORE PUSH1 0x1 PUSH1 0x20 MSTORE PUSH1 0x40 SWAP1 SWAP2 KECCAK256 DUP1 SLOAD PUSH1 0xFF NOT AND SWAP2 ISZERO ISZERO SWAP2 SWAP1 SWAP2 OR SWAP1 SSTORE JUMP JUMPDEST STOP JUMPDEST PUSH2 0x131 PUSH2 0x102 CALLDATASIZE PUSH1 0x4 PUSH2 0x266 JUMP JUMPDEST POP PUSH1 0x0 SWAP1 DUP2 MSTORE PUSH1 0x20 DUP2 DUP2 MSTORE PUSH1 0x40 SWAP2 DUP3 SWAP1 KECCAK256 DUP3 MLOAD DUP1 DUP5 ADD SWAP1 SWAP4 MSTORE DUP1 SLOAD DUP1 DUP5 MSTORE PUSH1 0x1 SWAP1 SWAP2 ADD SLOAD SWAP3 SWAP1 SWAP2 ADD DUP3 SWAP1 MSTORE SWAP1 SWAP2 JUMP JUMPDEST PUSH1 0x40 DUP1 MLOAD SWAP3 DUP4 MSTORE PUSH1 0x20 DUP4 ADD SWAP2 SWAP1 SWAP2 MSTORE ADD PUSH2 0x98 JUMP JUMPDEST PUSH2 0x131 PUSH2 0x154 CALLDATASIZE PUSH1 0x4 PUSH2 0x218 JUMP JUMPDEST PUSH1 0x0 SWAP1 DUP2 MSTORE PUSH1 0x20 DUP2 DUP2 MSTORE PUSH1 0x40 SWAP2 DUP3 SWAP1 KECCAK256 DUP3 MLOAD DUP1 DUP5 ADD SWAP1 SWAP4 MSTORE DUP1 SLOAD DUP1 DUP5 MSTORE PUSH1 0x1 SWAP1 SWAP2 ADD SLOAD SWAP3 SWAP1 SWAP2 ADD DUP3 SWAP1 MSTORE SWAP2 JUMP JUMPDEST PUSH2 0xF2 PUSH2 0x18F CALLDATASIZE PUSH1 0x4 PUSH2 0x297 JUMP JUMPDEST PUSH1 0x40 DUP1 MLOAD DUP1 DUP3 ADD DUP3 MSTORE SWAP3 DUP4 MSTORE PUSH1 0x20 DUP1 DUP5 ADD SWAP3 DUP4 MSTORE PUSH1 0x0 SWAP5 DUP6 MSTORE DUP5 SWAP1 MSTORE SWAP1 SWAP3 KECCAK256 SWAP1 MLOAD DUP2 SSTORE SWAP1 MLOAD PUSH1 0x1 SWAP1 SWAP2 ADD SSTORE JUMP JUMPDEST PUSH1 0x0 DUP1 PUSH2 0x1CC PUSH1 0x2 PUSH1 0x0 NOT PUSH2 0x2C3 JUMP JUMPDEST DUP4 GT SWAP1 POP DUP1 PUSH2 0x1EC JUMPI PUSH1 0x0 DUP4 DUP2 MSTORE PUSH1 0x1 PUSH1 0x20 MSTORE PUSH1 0x40 SWAP1 KECCAK256 SLOAD PUSH1 0xFF AND PUSH2 0x211 JUMP JUMPDEST PUSH1 0x1 PUSH1 0x0 PUSH2 0x1FC DUP6 PUSH1 0x0 NOT PUSH2 0x2E5 JUMP JUMPDEST DUP2 MSTORE PUSH1 0x20 DUP2 ADD SWAP2 SWAP1 SWAP2 MSTORE PUSH1 0x40 ADD PUSH1 0x0 KECCAK256 SLOAD PUSH1 0xFF AND JUMPDEST SWAP4 SWAP3 POP POP POP JUMP JUMPDEST PUSH1 0x0 PUSH1 0x20 DUP3 DUP5 SUB SLT ISZERO PUSH2 0x22A JUMPI PUSH1 0x0 DUP1 REVERT JUMPDEST POP CALLDATALOAD SWAP2 SWAP1 POP JUMP JUMPDEST PUSH1 0x0 DUP1 PUSH1 0x40 DUP4 DUP6 SUB SLT ISZERO PUSH2 0x244 JUMPI PUSH1 0x0 DUP1 REVERT JUMPDEST DUP3 CALLDATALOAD SWAP2 POP PUSH1 0x20 DUP4 ADD CALLDATALOAD DUP1 ISZERO ISZERO DUP2 EQ PUSH2 0x25B JUMPI PUSH1 0x0 DUP1 REVERT JUMPDEST DUP1 SWAP2 POP POP SWAP3 POP SWAP3 SWAP1 POP JUMP JUMPDEST PUSH1 0x0 DUP1 PUSH1 0x40 DUP4 DUP6 SUB SLT ISZERO PUSH2 0x279 JUMPI PUSH1 0x0 DUP1 REVERT JUMPDEST DUP3 CALLDATALOAD SWAP2 POP PUSH1 0x20 DUP4 ADD CALLDATALOAD PUSH1 0x1 PUSH1 0x1 PUSH1 0xA0 SHL SUB DUP2 AND DUP2 EQ PUSH2 0x25B JUMPI PUSH1 0x0 DUP1 REVERT JUMPDEST PUSH1 0x0 DUP1 PUSH1 0x0 PUSH1 0x60 DUP5 DUP7 SUB SLT ISZERO PUSH2 0x2AC JUMPI PUSH1 0x0 DUP1 REVERT JUMPDEST POP POP DUP2 CALLDATALOAD SWAP4 PUSH1 0x20 DUP4 ADD CALLDATALOAD SWAP4 POP PUSH1 0x40 SWAP1 SWAP3 ADD CALLDATALOAD SWAP2 SWAP1 POP JUMP JUMPDEST PUSH1 0x0 DUP3 PUSH2 0x2E0 JUMPI PUSH4 0x4E487B71 PUSH1 0xE0 SHL PUSH1 0x0 MSTORE PUSH1 0x12 PUSH1 0x4 MSTORE PUSH1 0x24 PUSH1 0x0 REVERT JUMPDEST POP DIV SWAP1 JUMP JUMPDEST DUP2 DUP2 SUB DUP2 DUP2 GT ISZERO PUSH2 0x306 JUMPI PUSH4 0x4E487B71 PUSH1 0xE0 SHL PUSH1 0x0 MSTORE PUSH1 0x11 PUSH1 0x4 MSTORE PUSH1 0x24 PUSH1 0x0 REVERT JUMPDEST SWAP3 SWAP2 POP POP JUMP INVALID LOG2 PUSH5 0x6970667358 0x22 SLT KECCAK256 0xB6 SGT PUSH4 0xD4B28278 SWAP4 PUSH13 0x3D40DD13A13A65DB7AE94057F0 0xD6 0xD2 0xA7 0xD CALLER NUMBER 0xD7 0xB3 0xBE 0xD9 PUSH5 0x736F6C6343 STOP ADDMOD ISZERO STOP CALLER "},"methodIdentifiers":{"getTripleAtoms(uint256)":"0cde801b","getVaultStateForUser(uint256,address)":"89065256","isTripleId(uint256)":"66e34a33","setIsTriple(uint256,bool)":"876f5da4","setVault(uint256,uint256,uint256)":"d29442b9","vaults(uint256)":"8c64ea4a"}}}}}